{
  "abi": [
    {
      "type": "constructor",
      "inputs": [
        {
          "name": "anEntryPoint",
          "type": "address",
          "internalType": "address"
        }
      ],
      "stateMutability": "nonpayable"
    },
    {
      "type": "fallback",
      "stateMutability": "payable"
    },
    {
      "type": "receive",
      "stateMutability": "payable"
    },
    {
      "type": "function",
      "name": "DOMAIN_SEPARATOR",
      "inputs": [],
      "outputs": [
        {
          "name": "",
          "type": "bytes32",
          "internalType": "bytes32"
        }
      ],
      "stateMutability": "view"
    },
    {
      "type": "function",
      "name": "accountId",
      "inputs": [],
      "outputs": [
        {
          "name": "",
          "type": "string",
          "internalType": "string"
        }
      ],
      "stateMutability": "pure"
    },
    {
      "type": "function",
      "name": "addDeposit",
      "inputs": [],
      "outputs": [],
      "stateMutability": "payable"
    },
    {
      "type": "function",
      "name": "eip712Domain",
      "inputs": [],
      "outputs": [
        {
          "name": "fields",
          "type": "bytes1",
          "internalType": "bytes1"
        },
        {
          "name": "name",
          "type": "string",
          "internalType": "string"
        },
        {
          "name": "version",
          "type": "string",
          "internalType": "string"
        },
        {
          "name": "chainId",
          "type": "uint256",
          "internalType": "uint256"
        },
        {
          "name": "verifyingContract",
          "type": "address",
          "internalType": "address"
        },
        {
          "name": "salt",
          "type": "bytes32",
          "internalType": "bytes32"
        },
        {
          "name": "extensions",
          "type": "uint256[]",
          "internalType": "uint256[]"
        }
      ],
      "stateMutability": "view"
    },
    {
      "type": "function",
      "name": "entryPoint",
      "inputs": [],
      "outputs": [
        {
          "name": "",
          "type": "address",
          "internalType": "address"
        }
      ],
      "stateMutability": "view"
    },
    {
      "type": "function",
      "name": "execute",
      "inputs": [
        {
          "name": "mode",
          "type": "bytes32",
          "internalType": "ExecutionMode"
        },
        {
          "name": "executionCalldata",
          "type": "bytes",
          "internalType": "bytes"
        }
      ],
      "outputs": [],
      "stateMutability": "payable"
    },
    {
      "type": "function",
      "name": "executeFromExecutor",
      "inputs": [
        {
          "name": "mode",
          "type": "bytes32",
          "internalType": "ExecutionMode"
        },
        {
          "name": "executionCalldata",
          "type": "bytes",
          "internalType": "bytes"
        }
      ],
      "outputs": [
        {
          "name": "returnData",
          "type": "bytes[]",
          "internalType": "bytes[]"
        }
      ],
      "stateMutability": "payable"
    },
    {
      "type": "function",
      "name": "executeUserOp",
      "inputs": [
        {
          "name": "userOp",
          "type": "tuple",
          "internalType": "struct PackedUserOperation",
          "components": [
            {
              "name": "sender",
              "type": "address",
              "internalType": "address"
            },
            {
              "name": "nonce",
              "type": "uint256",
              "internalType": "uint256"
            },
            {
              "name": "initCode",
              "type": "bytes",
              "internalType": "bytes"
            },
            {
              "name": "callData",
              "type": "bytes",
              "internalType": "bytes"
            },
            {
              "name": "accountGasLimits",
              "type": "bytes32",
              "internalType": "bytes32"
            },
            {
              "name": "preVerificationGas",
              "type": "uint256",
              "internalType": "uint256"
            },
            {
              "name": "gasFees",
              "type": "bytes32",
              "internalType": "bytes32"
            },
            {
              "name": "paymasterAndData",
              "type": "bytes",
              "internalType": "bytes"
            },
            {
              "name": "signature",
              "type": "bytes",
              "internalType": "bytes"
            }
          ]
        },
        {
          "name": "",
          "type": "bytes32",
          "internalType": "bytes32"
        }
      ],
      "outputs": [],
      "stateMutability": "payable"
    },
    {
      "type": "function",
      "name": "getActiveHook",
      "inputs": [],
      "outputs": [
        {
          "name": "hook",
          "type": "address",
          "internalType": "address"
        }
      ],
      "stateMutability": "view"
    },
    {
      "type": "function",
      "name": "getDeposit",
      "inputs": [],
      "outputs": [
        {
          "name": "result",
          "type": "uint256",
          "internalType": "uint256"
        }
      ],
      "stateMutability": "view"
    },
    {
      "type": "function",
      "name": "getExecutorsPaginated",
      "inputs": [
        {
          "name": "cursor",
          "type": "address",
          "internalType": "address"
        },
        {
          "name": "size",
          "type": "uint256",
          "internalType": "uint256"
        }
      ],
      "outputs": [
        {
          "name": "array",
          "type": "address[]",
          "internalType": "address[]"
        },
        {
          "name": "next",
          "type": "address",
          "internalType": "address"
        }
      ],
      "stateMutability": "view"
    },
    {
      "type": "function",
      "name": "getFallbackHandlerBySelector",
      "inputs": [
        {
          "name": "selector",
          "type": "bytes4",
          "internalType": "bytes4"
        }
      ],
      "outputs": [
        {
          "name": "",
          "type": "bytes1",
          "internalType": "CallType"
        },
        {
          "name": "",
          "type": "address",
          "internalType": "address"
        }
      ],
      "stateMutability": "view"
    },
    {
      "type": "function",
      "name": "getImplementation",
      "inputs": [],
      "outputs": [
        {
          "name": "implementation",
          "type": "address",
          "internalType": "address"
        }
      ],
      "stateMutability": "view"
    },
    {
      "type": "function",
      "name": "getValidatorsPaginated",
      "inputs": [
        {
          "name": "cursor",
          "type": "address",
          "internalType": "address"
        },
        {
          "name": "size",
          "type": "uint256",
          "internalType": "uint256"
        }
      ],
      "outputs": [
        {
          "name": "array",
          "type": "address[]",
          "internalType": "address[]"
        },
        {
          "name": "next",
          "type": "address",
          "internalType": "address"
        }
      ],
      "stateMutability": "view"
    },
    {
      "type": "function",
      "name": "hashTypedData",
      "inputs": [
        {
          "name": "structHash",
          "type": "bytes32",
          "internalType": "bytes32"
        }
      ],
      "outputs": [
        {
          "name": "",
          "type": "bytes32",
          "internalType": "bytes32"
        }
      ],
      "stateMutability": "view"
    },
    {
      "type": "function",
      "name": "initializeAccount",
      "inputs": [
        {
          "name": "initData",
          "type": "bytes",
          "internalType": "bytes"
        }
      ],
      "outputs": [],
      "stateMutability": "payable"
    },
    {
      "type": "function",
      "name": "installModule",
      "inputs": [
        {
          "name": "moduleTypeId",
          "type": "uint256",
          "internalType": "uint256"
        },
        {
          "name": "module",
          "type": "address",
          "internalType": "address"
        },
        {
          "name": "initData",
          "type": "bytes",
          "internalType": "bytes"
        }
      ],
      "outputs": [],
      "stateMutability": "payable"
    },
    {
      "type": "function",
      "name": "isModuleInstalled",
      "inputs": [
        {
          "name": "moduleTypeId",
          "type": "uint256",
          "internalType": "uint256"
        },
        {
          "name": "module",
          "type": "address",
          "internalType": "address"
        },
        {
          "name": "additionalContext",
          "type": "bytes",
          "internalType": "bytes"
        }
      ],
      "outputs": [
        {
          "name": "",
          "type": "bool",
          "internalType": "bool"
        }
      ],
      "stateMutability": "view"
    },
    {
      "type": "function",
      "name": "isValidSignature",
      "inputs": [
        {
          "name": "hash",
          "type": "bytes32",
          "internalType": "bytes32"
        },
        {
          "name": "data",
          "type": "bytes",
          "internalType": "bytes"
        }
      ],
      "outputs": [
        {
          "name": "",
          "type": "bytes4",
          "internalType": "bytes4"
        }
      ],
      "stateMutability": "view"
    },
    {
      "type": "function",
      "name": "nonce",
      "inputs": [
        {
          "name": "key",
          "type": "uint192",
          "internalType": "uint192"
        }
      ],
      "outputs": [
        {
          "name": "",
          "type": "uint256",
          "internalType": "uint256"
        }
      ],
      "stateMutability": "view"
    },
    {
      "type": "function",
      "name": "proxiableUUID",
      "inputs": [],
      "outputs": [
        {
          "name": "",
          "type": "bytes32",
          "internalType": "bytes32"
        }
      ],
      "stateMutability": "view"
    },
    {
      "type": "function",
      "name": "registry",
      "inputs": [],
      "outputs": [
        {
          "name": "",
          "type": "address",
          "internalType": "contract IERC7484"
        }
      ],
      "stateMutability": "view"
    },
    {
      "type": "function",
      "name": "setRegistry",
      "inputs": [
        {
          "name": "newRegistry",
          "type": "address",
          "internalType": "contract IERC7484"
        },
        {
          "name": "attesters",
          "type": "address[]",
          "internalType": "address[]"
        },
        {
          "name": "threshold",
          "type": "uint8",
          "internalType": "uint8"
        }
      ],
      "outputs": [],
      "stateMutability": "nonpayable"
    },
    {
      "type": "function",
      "name": "supportsExecutionMode",
      "inputs": [
        {
          "name": "mode",
          "type": "bytes32",
          "internalType": "ExecutionMode"
        }
      ],
      "outputs": [
        {
          "name": "isSupported",
          "type": "bool",
          "internalType": "bool"
        }
      ],
      "stateMutability": "view"
    },
    {
      "type": "function",
      "name": "supportsModule",
      "inputs": [
        {
          "name": "moduleTypeId",
          "type": "uint256",
          "internalType": "uint256"
        }
      ],
      "outputs": [
        {
          "name": "",
          "type": "bool",
          "internalType": "bool"
        }
      ],
      "stateMutability": "view"
    },
    {
      "type": "function",
      "name": "supportsNestedTypedDataSign",
      "inputs": [],
      "outputs": [
        {
          "name": "result",
          "type": "bytes32",
          "internalType": "bytes32"
        }
      ],
      "stateMutability": "pure"
    },
    {
      "type": "function",
      "name": "uninstallModule",
      "inputs": [
        {
          "name": "moduleTypeId",
          "type": "uint256",
          "internalType": "uint256"
        },
        {
          "name": "module",
          "type": "address",
          "internalType": "address"
        },
        {
          "name": "deInitData",
          "type": "bytes",
          "internalType": "bytes"
        }
      ],
      "outputs": [],
      "stateMutability": "payable"
    },
    {
      "type": "function",
      "name": "upgradeToAndCall",
      "inputs": [
        {
          "name": "newImplementation",
          "type": "address",
          "internalType": "address"
        },
        {
          "name": "data",
          "type": "bytes",
          "internalType": "bytes"
        }
      ],
      "outputs": [],
      "stateMutability": "payable"
    },
    {
      "type": "function",
      "name": "validateUserOp",
      "inputs": [
        {
          "name": "op",
          "type": "tuple",
          "internalType": "struct PackedUserOperation",
          "components": [
            {
              "name": "sender",
              "type": "address",
              "internalType": "address"
            },
            {
              "name": "nonce",
              "type": "uint256",
              "internalType": "uint256"
            },
            {
              "name": "initCode",
              "type": "bytes",
              "internalType": "bytes"
            },
            {
              "name": "callData",
              "type": "bytes",
              "internalType": "bytes"
            },
            {
              "name": "accountGasLimits",
              "type": "bytes32",
              "internalType": "bytes32"
            },
            {
              "name": "preVerificationGas",
              "type": "uint256",
              "internalType": "uint256"
            },
            {
              "name": "gasFees",
              "type": "bytes32",
              "internalType": "bytes32"
            },
            {
              "name": "paymasterAndData",
              "type": "bytes",
              "internalType": "bytes"
            },
            {
              "name": "signature",
              "type": "bytes",
              "internalType": "bytes"
            }
          ]
        },
        {
          "name": "userOpHash",
          "type": "bytes32",
          "internalType": "bytes32"
        },
        {
          "name": "missingAccountFunds",
          "type": "uint256",
          "internalType": "uint256"
        }
      ],
      "outputs": [
        {
          "name": "validationData",
          "type": "uint256",
          "internalType": "uint256"
        }
      ],
      "stateMutability": "nonpayable"
    },
    {
      "type": "function",
      "name": "withdrawDepositTo",
      "inputs": [
        {
          "name": "to",
          "type": "address",
          "internalType": "address"
        },
        {
          "name": "amount",
          "type": "uint256",
          "internalType": "uint256"
        }
      ],
      "outputs": [],
      "stateMutability": "payable"
    },
    {
      "type": "event",
      "name": "ERC7484RegistryConfigured",
      "inputs": [
        {
          "name": "registry",
          "type": "address",
          "indexed": true,
          "internalType": "contract IERC7484"
        }
      ],
      "anonymous": false
    },
    {
      "type": "event",
      "name": "Executed",
      "inputs": [
        {
          "name": "userOp",
          "type": "tuple",
          "indexed": false,
          "internalType": "struct PackedUserOperation",
          "components": [
            {
              "name": "sender",
              "type": "address",
              "internalType": "address"
            },
            {
              "name": "nonce",
              "type": "uint256",
              "internalType": "uint256"
            },
            {
              "name": "initCode",
              "type": "bytes",
              "internalType": "bytes"
            },
            {
              "name": "callData",
              "type": "bytes",
              "internalType": "bytes"
            },
            {
              "name": "accountGasLimits",
              "type": "bytes32",
              "internalType": "bytes32"
            },
            {
              "name": "preVerificationGas",
              "type": "uint256",
              "internalType": "uint256"
            },
            {
              "name": "gasFees",
              "type": "bytes32",
              "internalType": "bytes32"
            },
            {
              "name": "paymasterAndData",
              "type": "bytes",
              "internalType": "bytes"
            },
            {
              "name": "signature",
              "type": "bytes",
              "internalType": "bytes"
            }
          ]
        },
        {
          "name": "innerCallRet",
          "type": "bytes",
          "indexed": false,
          "internalType": "bytes"
        }
      ],
      "anonymous": false
    },
    {
      "type": "event",
      "name": "ModuleInstalled",
      "inputs": [
        {
          "name": "moduleTypeId",
          "type": "uint256",
          "indexed": false,
          "internalType": "uint256"
        },
        {
          "name": "module",
          "type": "address",
          "indexed": false,
          "internalType": "address"
        }
      ],
      "anonymous": false
    },
    {
      "type": "event",
      "name": "ModuleUninstalled",
      "inputs": [
        {
          "name": "moduleTypeId",
          "type": "uint256",
          "indexed": false,
          "internalType": "uint256"
        },
        {
          "name": "module",
          "type": "address",
          "indexed": false,
          "internalType": "address"
        }
      ],
      "anonymous": false
    },
    {
      "type": "event",
      "name": "TryDelegateCallUnsuccessful",
      "inputs": [
        {
          "name": "batchExecutionindex",
          "type": "uint256",
          "indexed": false,
          "internalType": "uint256"
        },
        {
          "name": "result",
          "type": "bytes",
          "indexed": false,
          "internalType": "bytes"
        }
      ],
      "anonymous": false
    },
    {
      "type": "event",
      "name": "TryExecuteUnsuccessful",
      "inputs": [
        {
          "name": "batchExecutionindex",
          "type": "uint256",
          "indexed": false,
          "internalType": "uint256"
        },
        {
          "name": "result",
          "type": "bytes",
          "indexed": false,
          "internalType": "bytes"
        }
      ],
      "anonymous": false
    },
    {
      "type": "event",
      "name": "Upgraded",
      "inputs": [
        {
          "name": "implementation",
          "type": "address",
          "indexed": true,
          "internalType": "address"
        }
      ],
      "anonymous": false
    },
    {
      "type": "error",
      "name": "AccountAccessUnauthorized",
      "inputs": []
    },
    {
      "type": "error",
      "name": "CannotRemoveLastValidator",
      "inputs": []
    },
    {
      "type": "error",
      "name": "EnableModeSigError",
      "inputs": []
    },
    {
      "type": "error",
      "name": "EntryPointCanNotBeZero",
      "inputs": []
    },
    {
      "type": "error",
      "name": "ExecutionFailed",
      "inputs": []
    },
    {
      "type": "error",
      "name": "FallbackAlreadyInstalledForSelector",
      "inputs": [
        {
          "name": "selector",
          "type": "bytes4",
          "internalType": "bytes4"
        }
      ]
    },
    {
      "type": "error",
      "name": "FallbackHandlerUninstallFailed",
      "inputs": []
    },
    {
      "type": "error",
      "name": "FallbackNotInstalledForSelector",
      "inputs": [
        {
          "name": "selector",
          "type": "bytes4",
          "internalType": "bytes4"
        }
      ]
    },
    {
      "type": "error",
      "name": "FallbackSelectorForbidden",
      "inputs": []
    },
    {
      "type": "error",
      "name": "HookAlreadyInstalled",
      "inputs": [
        {
          "name": "currentHook",
          "type": "address",
          "internalType": "address"
        }
      ]
    },
    {
      "type": "error",
      "name": "HookPostCheckFailed",
      "inputs": []
    },
    {
      "type": "error",
      "name": "ImplementationIsNotAContract",
      "inputs": []
    },
    {
      "type": "error",
      "name": "InnerCallFailed",
      "inputs": []
    },
    {
      "type": "error",
      "name": "InvalidImplementationAddress",
      "inputs": []
    },
    {
      "type": "error",
      "name": "InvalidInput",
      "inputs": []
    },
    {
      "type": "error",
      "name": "InvalidModule",
      "inputs": [
        {
          "name": "module",
          "type": "address",
          "internalType": "address"
        }
      ]
    },
    {
      "type": "error",
      "name": "InvalidModuleTypeId",
      "inputs": [
        {
          "name": "moduleTypeId",
          "type": "uint256",
          "internalType": "uint256"
        }
      ]
    },
    {
      "type": "error",
      "name": "LinkedList_AlreadyInitialized",
      "inputs": []
    },
    {
      "type": "error",
      "name": "LinkedList_EntryAlreadyInList",
      "inputs": [
        {
          "name": "entry",
          "type": "address",
          "internalType": "address"
        }
      ]
    },
    {
      "type": "error",
      "name": "LinkedList_InvalidEntry",
      "inputs": [
        {
          "name": "entry",
          "type": "address",
          "internalType": "address"
        }
      ]
    },
    {
      "type": "error",
      "name": "LinkedList_InvalidPage",
      "inputs": []
    },
    {
      "type": "error",
      "name": "MismatchModuleTypeId",
      "inputs": [
        {
          "name": "moduleTypeId",
          "type": "uint256",
          "internalType": "uint256"
        }
      ]
    },
    {
      "type": "error",
      "name": "MissingFallbackHandler",
      "inputs": [
        {
          "name": "selector",
          "type": "bytes4",
          "internalType": "bytes4"
        }
      ]
    },
    {
      "type": "error",
      "name": "ModuleAddressCanNotBeZero",
      "inputs": []
    },
    {
      "type": "error",
      "name": "ModuleAlreadyInstalled",
      "inputs": [
        {
          "name": "moduleTypeId",
          "type": "uint256",
          "internalType": "uint256"
        },
        {
          "name": "module",
          "type": "address",
          "internalType": "address"
        }
      ]
    },
    {
      "type": "error",
      "name": "ModuleNotInstalled",
      "inputs": [
        {
          "name": "moduleTypeId",
          "type": "uint256",
          "internalType": "uint256"
        },
        {
          "name": "module",
          "type": "address",
          "internalType": "address"
        }
      ]
    },
    {
      "type": "error",
      "name": "NexusInitializationFailed",
      "inputs": []
    },
    {
      "type": "error",
      "name": "UnauthorizedCallContext",
      "inputs": []
    },
    {
      "type": "error",
      "name": "UnauthorizedOperation",
      "inputs": [
        {
          "name": "operator",
          "type": "address",
          "internalType": "address"
        }
      ]
    },
    {
      "type": "error",
      "name": "UnsupportedCallType",
      "inputs": [
        {
          "name": "callType",
          "type": "bytes1",
          "internalType": "CallType"
        }
      ]
    },
    {
      "type": "error",
      "name": "UnsupportedExecType",
      "inputs": [
        {
          "name": "execType",
          "type": "bytes1",
          "internalType": "ExecType"
        }
      ]
    },
    {
      "type": "error",
      "name": "UnsupportedModuleType",
      "inputs": [
        {
          "name": "moduleTypeId",
          "type": "uint256",
          "internalType": "uint256"
        }
      ]
    },
    {
      "type": "error",
      "name": "UpgradeFailed",
      "inputs": []
    }
  ],
  "bytecode": {
    "object": "0x610180604052346102e15760006163336020813803918261001f816102e6565b9384928339810103126102dd5751906001600160a01b038216908183036102da5760a0903060805246825261005460406102e6565b6005815260208101644e6578757360d81b815261007160406102e6565b90600a8252602082019269312e302e302d6265746160b01b845251902092505190208160c0528060e052604051917f8b73c3c69bb8fe3d512ecc4cf759cc79239f7b179b0ffacaa9a75d522b39400f835260208301526040820152466060820152306080820152206101005230610140523061016052156102c9576101205260016000527f0bb70095b32b9671358306b0339b4c06e7cbd8cb82505941fba30d1eb5b82f01602052600080516020616313833981519152546001600160a01b03166102b8576001600081905260008051602061631383398151915280546001600160a01b03191690911790557f0bb70095b32b9671358306b0339b4c06e7cbd8cb82505941fba30d1eb5b82f006020526000805160206162f3833981519152546001600160a01b03166102b857600160008190527f0bb70095b32b9671358306b0339b4c06e7cbd8cb82505941fba30d1eb5b82f006020526000805160206162f383398151915280546001600160a01b0319169091179055604051615fd1908161032282396080518181816106580152613aa3015260a0518181816106350152613a80015260c0518181816106ba0152613b17015260e0518181816106e00152613b3d0152610100518181816106130152613a5e01526101205181818161058e0152818161088101528181610a7001528181610b6c015281816112c40152818161140b015281816116ba015281816119120152818161197b01528181611e7501528181611f09015261325d015261014051818181610bd50152610d11015261016051815050f35b6329e42f3360e11b60005260046000fd5b6307e355bf60e31b60005260046000fd5b80fd5b5080fd5b600080fd5b6040519190601f01601f191682016001600160401b0381118382101761030b57604052565b634e487b7160e01b600052604160045260246000fdfe6080604052600436101561001e575b361561001c5761001c6133a8565b005b60003560e01c80630a664dba146101fe578063112d3a7d146101f95780631626ba7e146101f457806319822f7c146101ef5780633644e515146101ea578063481ddd23146101e55780634a58db19146101e05780634b6a1419146101db5780634d44560d146101d65780634f1ef286146101d157806352d1902d146101cc5780635faac46b146101c75780636575f6aa146101c25780637b103999146101bd57806384b0196e146101b85780638dd7712f146101b35780639517e29f146101ae5780639cfd7cff146101a9578063a71763a8146101a4578063aaf10f421461019f578063b0d691fe1461019a578063c399ec8814610195578063d03c791414610190578063d620c85a1461018b578063d691c96414610186578063d86f2b3c14610181578063e9ae5c531461017c578063ea5f61d014610177578063eab77e17146101725763f2dc691d0361000e5761229b565b612204565b612089565b611ee8565b611dd2565b611c50565b611b2b565b6119ac565b611936565b6118c7565b611830565b611698565b61161b565b6113e8565b611260565b61116a565b6110b2565b61106e565b610dd1565b610cdf565b610afd565b610a33565b6108a9565b61084f565b610745565b6105e2565b610515565b610377565b610351565b610213565b600091031261020e57565b600080fd5b3461020e5760007ffffffffffffffffffffffffffffffffffffffffffffffffffffffffffffffffc36011261020e57602073ffffffffffffffffffffffffffffffffffffffff7f0bb70095b32b9671358306b0339b4c06e7cbd8cb82505941fba30d1eb5b82f03541673ffffffffffffffffffffffffffffffffffffffff60405191168152f35b73ffffffffffffffffffffffffffffffffffffffff81160361020e57565b35906102c38261029a565b565b9181601f8401121561020e5782359167ffffffffffffffff831161020e576020838186019501011161020e57565b60607ffffffffffffffffffffffffffffffffffffffffffffffffffffffffffffffffc82011261020e576004359160243561032d8161029a565b916044359067ffffffffffffffff821161020e5761034d916004016102c5565b9091565b3461020e57602061036d610364366102f3565b92919091613611565b6040519015158152f35b3461020e5760407ffffffffffffffffffffffffffffffffffffffffffffffffffffffffffffffffc36011261020e5760043560243567ffffffffffffffff811161020e576103c99036906004016102c5565b90918160141161020e578261044973ffffffffffffffffffffffffffffffffffffffff926104438560209661042b6104256104839a7fffffffffffffffffffffffffffffffffffffffff00000000000000000000000090351690565b60601c90565b9561043e87610439816143c8565b6123e7565b6122d7565b916136c5565b939091604051968795869485937ff551e2ee00000000000000000000000000000000000000000000000000000000855233600486016124fa565b0392165afa8015610501576104ce916000916104d2575b506040517fffffffff0000000000000000000000000000000000000000000000000000000090911681529081906020820190565b0390f35b6104f4915060203d6020116104fa575b6104ec8183612462565b8101906124a3565b3861049a565b503d6104e2565b61252c565b908161012091031261020e5790565b3461020e5760607ffffffffffffffffffffffffffffffffffffffffffffffffffffffffffffffffc36011261020e5760043567ffffffffffffffff811161020e576105676104ce913690600401610506565b602435906105ba6044359283926105b573ffffffffffffffffffffffffffffffffffffffff7f0000000000000000000000000000000000000000000000000000000000000000163314612538565b6129a6565b916105d1575b506040519081529081906020820190565b60009081803892335af150386105c0565b3461020e5760007ffffffffffffffffffffffffffffffffffffffffffffffffffffffffffffffffc36011261020e577f0000000000000000000000000000000000000000000000000000000000000000467f000000000000000000000000000000000000000000000000000000000000000014307f000000000000000000000000000000000000000000000000000000000000000014161561068a575b602090604051908152f35b50602061071460a06040517f8b73c3c69bb8fe3d512ecc4cf759cc79239f7b179b0ffacaa9a75d522b39400f81527f000000000000000000000000000000000000000000000000000000000000000060208201527f000000000000000000000000000000000000000000000000000000000000000060408201524660608201523060808201522090565b905061067f565b7fffffffff0000000000000000000000000000000000000000000000000000000081160361020e57565b3461020e5760207ffffffffffffffffffffffffffffffffffffffffffffffffffffffffffffffffc36011261020e576107d46004356107838161071b565b7fffffffff00000000000000000000000000000000000000000000000000000000166000527f0bb70095b32b9671358306b0339b4c06e7cbd8cb82505941fba30d1eb5b82f02602052604060002090565b6040516040810181811067ffffffffffffffff82111761084a576040908152915473ffffffffffffffffffffffffffffffffffffffff811680835260589190911b7fff00000000000000000000000000000000000000000000000000000000000000166020928301819052835190815291820152f35b612433565b60007ffffffffffffffffffffffffffffffffffffffffffffffffffffffffffffffffc36011261020e576000388180347f00000000000000000000000000000000000000000000000000000000000000005af11561020e57005b60207ffffffffffffffffffffffffffffffffffffffffffffffffffffffffffffffffc36011261020e5760043567ffffffffffffffff811161020e576108f39036906004016102c5565b9060016000527f0bb70095b32b9671358306b0339b4c06e7cbd8cb82505941fba30d1eb5b82f0160205273ffffffffffffffffffffffffffffffffffffffff60406000205416610a095760006109af819284600184527f0bb70095b32b9671358306b0339b4c06e7cbd8cb82505941fba30d1eb5b82f0160205261099f6040852060017fffffffffffffffffffffffff0000000000000000000000000000000000000000825416179055565b6109a7614de7565b810190612b3e565b9073ffffffffffffffffffffffffffffffffffffffff60208351930191165af46109d7612b75565b50156109df57005b7f315927c50000000000000000000000000000000000000000000000000000000060005260046000fd5b7f53c85e660000000000000000000000000000000000000000000000000000000060005260046000fd5b60407ffffffffffffffffffffffffffffffffffffffffffffffffffffffffffffffffc36011261020e576000600435610a6b8161029a565b6024357f00000000000000000000000000000000000000000000000000000000000000009173ffffffffffffffffffffffffffffffffffffffff831633148015610af4575b610ab990612538565b6014526034526f205c28780000000000000000000000008252604460108338935af115610ae7576000603452005b3d60006040513e3d604051fd5b50333014610ab0565b60407ffffffffffffffffffffffffffffffffffffffffffffffffffffffffffffffffc36011261020e57600435610b338161029a565b60243567ffffffffffffffff811161020e57610b539036906004016102c5565b909173ffffffffffffffffffffffffffffffffffffffff7f00000000000000000000000000000000000000000000000000000000000000001633148081159182610cd6575b610ba190612538565b73ffffffffffffffffffffffffffffffffffffffff831692610bc4841515612ba5565b610bd0813b1515612ba5565b3055307f000000000000000000000000000000000000000000000000000000000000000014610cc85790610cbf575b610c0890612538565b6352d1902d6001527f360894a13ba1a3210667c828492db98dca3e2076cc3735a920a3ca505d382bbc602060016004601d855afa5103610cb157807fbc7cd75a20ee27fd9adebab32041f755214dbc6bffa90cc0225b39da2e5c2d3b600080a281817f360894a13ba1a3210667c828492db98dca3e2076cc3735a920a3ca505d382bbc55610c9257005b816000926040519485378338925af415610ca857005b3d6000823e3d90fd5b6355299b496001526004601dfd5b50333014610bff565b639f03a0266000526004601cfd5b50333014610b98565b3461020e5760007ffffffffffffffffffffffffffffffffffffffffffffffffffffffffffffffffc36011261020e57307f000000000000000000000000000000000000000000000000000000000000000003610cc85760206040517f360894a13ba1a3210667c828492db98dca3e2076cc3735a920a3ca505d382bbc8152f35b909291926040820160408352815180915260206060840192019060005b818110610da55750505073ffffffffffffffffffffffffffffffffffffffff6020919416910152565b825173ffffffffffffffffffffffffffffffffffffffff16845260209384019390920191600101610d7c565b3461020e5760407ffffffffffffffffffffffffffffffffffffffffffffffffffffffffffffffffc36011261020e57600435610e0c8161029a565b602435906000600173ffffffffffffffffffffffffffffffffffffffff8316141580611058575b611016578215610fee57610eaf610e95610e4e859495614ea8565b929473ffffffffffffffffffffffffffffffffffffffff166000527f0bb70095b32b9671358306b0339b4c06e7cbd8cb82505941fba30d1eb5b82f00602052604060002090565b5473ffffffffffffffffffffffffffffffffffffffff1690565b73ffffffffffffffffffffffffffffffffffffffff81168015159081610fe2575b5080610fd9575b15610f6057610f54610e9582610f0f610f5a94610ef489886147f7565b9073ffffffffffffffffffffffffffffffffffffffff169052565b73ffffffffffffffffffffffffffffffffffffffff166000527f0bb70095b32b9671358306b0339b4c06e7cbd8cb82505941fba30d1eb5b82f00602052604060002090565b93614f26565b92610eaf565b9083600173ffffffffffffffffffffffffffffffffffffffff8416141580610fd0575b610f99575b81526104ce60405192839283610d5f565b9150610fca610fb0610faa84614f58565b836147f7565b5173ffffffffffffffffffffffffffffffffffffffff1690565b91610f88565b50801515610f83565b50828410610ed7565b60019150141538610ed0565b807ff72508170000000000000000000000000000000000000000000000000000000060049252fd5b7f7c84ecfb00000000000000000000000000000000000000000000000000000000815273ffffffffffffffffffffffffffffffffffffffff8216600452602490fd5b50611069611065836143c8565b1590565b610e33565b3461020e5760207ffffffffffffffffffffffffffffffffffffffffffffffffffffffffffffffffc36011261020e5760206110aa600435613a5c565b604051908152f35b3461020e5760007ffffffffffffffffffffffffffffffffffffffffffffffffffffffffffffffffc36011261020e57602073ffffffffffffffffffffffffffffffffffffffff60005416604051908152f35b60005b8381106111175750506000910152565b8181015183820152602001611107565b907fffffffffffffffffffffffffffffffffffffffffffffffffffffffffffffffe0601f60209361116381518092818752878088019101611104565b0116010190565b3461020e5760007ffffffffffffffffffffffffffffffffffffffffffffffffffffffffffffffffc36011261020e577fff0000000000000000000000000000000000000000000000000000000000000061121073ffffffffffffffffffffffffffffffffffffffff6112026111dd612bd6565b97946040999397919699949294519a8b9a168a5260e060208b015260e08a0190611127565b9088820360408a0152611127565b93606087015216608085015260a084015282810360c08401526020808351928381520192019060005b818110611247575050500390f35b8251845285945060209384019390920191600101611239565b60407ffffffffffffffffffffffffffffffffffffffffffffffffffffffffffffffffc36011261020e5760043567ffffffffffffffff811161020e576112aa903690600401610506565b6112eb73ffffffffffffffffffffffffffffffffffffffff7f0000000000000000000000000000000000000000000000000000000000000000163314612538565b6112f860608201826126f4565b908160041161020e5760405161130f602082612462565b60008152917ffffffffffffffffffffffffffffffffffffffffffffffffffffffffffffffffc8101611372575b6040517fd3fddfd1276d1cc278f10907710a44474a32f917b2fcfa198f46ca7689215e2f908061136d868883612c75565b0390a1005b60009250816004611387928594019101612b3e565b906020825192019073ffffffffffffffffffffffffffffffffffffffff3491165af16113b1612b75565b90156113be57388061133c565b7fb7c2b7060000000000000000000000000000000000000000000000000000000060005260046000fd5b6113f1366102f3565b73ffffffffffffffffffffffffffffffffffffffff9391937f00000000000000000000000000000000000000000000000000000000000000001633148015611612575b61143d90612538565b73ffffffffffffffffffffffffffffffffffffffff61149073ffffffffffffffffffffffffffffffffffffffff7f0bb70095b32b9671358306b0339b4c06e7cbd8cb82505941fba30d1eb5b82f03541690565b16806114f257506114c4907fd21d0b289f126c4b473ea641963e766833c2f13866e4ff480abd787c100ef123948484613cc1565b6040805191825273ffffffffffffffffffffffffffffffffffffffff9092166020820152908190810161136d565b90604051947fd68f60250000000000000000000000000000000000000000000000000000000086526000868061152d36343360048501612d97565b038183875af1958615610501576000966115e7575b509061154f918585613cc1565b803b1561020e576115946000949185926040519687809481937f173bf7da00000000000000000000000000000000000000000000000000000000835260048301612dcb565b03925af1928315610501577fd21d0b289f126c4b473ea641963e766833c2f13866e4ff480abd787c100ef123936115cc575b506114c4565b806115db60006115e193612462565b80610203565b386115c6565b61154f9291965061160a903d806000833e6116028183612462565b810190612d38565b959091611542565b50333014611434565b3461020e5760007ffffffffffffffffffffffffffffffffffffffffffffffffffffffffffffffffc36011261020e576104ce604080519061165c8183612462565b601982527f6269636f6e6f6d792e6e657875732e312e302e302d6265746100000000000000602083015251918291602083526020830190611127565b6116a1366102f3565b919273ffffffffffffffffffffffffffffffffffffffff7f00000000000000000000000000000000000000000000000000000000000000001633148015611827575b6116ec90612538565b6040517fecd059610000000000000000000000000000000000000000000000000000000081526004810182905260208160248173ffffffffffffffffffffffffffffffffffffffff89165afa908115610501576117539183916000916117f8575b50612cb2565b611769848261176486868484613611565b612ce7565b6040805182815273ffffffffffffffffffffffffffffffffffffffff861660208201527f341347516a9de374859dfda710fa4828b2d48cb57d4fbe4c1149612b8e02276e9190a1600181036117c2575061001c92614294565b600281036117d4575061001c92613fa0565b600381036117e6575061001c92613e75565b6004146117ef57005b61001c92613da7565b61181a915060203d602011611820575b6118128183612462565b810190612c9a565b3861174d565b503d611808565b503330146116e3565b3461020e5760007ffffffffffffffffffffffffffffffffffffffffffffffffffffffffffffffffc36011261020e577f360894a13ba1a3210667c828492db98dca3e2076cc3735a920a3ca505d382bbc5473ffffffffffffffffffffffffffffffffffffffff8116156118bf575b60209073ffffffffffffffffffffffffffffffffffffffff60405191168152f35b50305461189e565b3461020e5760007ffffffffffffffffffffffffffffffffffffffffffffffffffffffffffffffffc36011261020e57602060405173ffffffffffffffffffffffffffffffffffffffff7f0000000000000000000000000000000000000000000000000000000000000000168152f35b3461020e5760007ffffffffffffffffffffffffffffffffffffffffffffffffffffffffffffffffc36011261020e57306020526370a08231600052602080806024601c7f00000000000000000000000000000000000000000000000000000000000000005afa601f3d1116815102604051908152f35b3461020e5760207ffffffffffffffffffffffffffffffffffffffffffffffffffffffffffffffffc36011261020e576104ce6004358060081b7fff00000000000000000000000000000000000000000000000000000000000000821615918215611adf575b8215611ab2575b5081611a32575b5060405190151581529081906020820190565b7fff0000000000000000000000000000000000000000000000000000000000000081161591508115611a66575b5038611a1f565b7fff00000000000000000000000000000000000000000000000000000000000000167f010000000000000000000000000000000000000000000000000000000000000014905038611a5f565b7fff0000000000000000000000000000000000000000000000000000000000000090811614915038611a18565b7fff0000000000000000000000000000000000000000000000000000000000000081167f0100000000000000000000000000000000000000000000000000000000000000149250611a11565b3461020e5760007ffffffffffffffffffffffffffffffffffffffffffffffffffffffffffffffffc36011261020e5760206040517fd620c85a000000000000000000000000000000000000000000000000000000008152f35b9060407ffffffffffffffffffffffffffffffffffffffffffffffffffffffffffffffffc83011261020e57600435916024359067ffffffffffffffff821161020e5761034d916004016102c5565b602081016020825282518091526040820191602060408360051b8301019401926000915b838310611c0557505050505090565b9091929394602080611c41837fffffffffffffffffffffffffffffffffffffffffffffffffffffffffffffffc086600196030187528951611127565b97019301930191939290611bf6565b611c5936611b84565b91611c673361043933614437565b600073ffffffffffffffffffffffffffffffffffffffff611cbc73ffffffffffffffffffffffffffffffffffffffff7f0bb70095b32b9671358306b0339b4c06e7cbd8cb82505941fba30d1eb5b82f03541690565b1680611cde57505091611cd2916104ce93612ddc565b60405191829182611bd2565b919390926040517fd68f6025000000000000000000000000000000000000000000000000000000008152848180611d1a36343360048501612d97565b038183885af1948515610501578095611db0575b5050611d3b929394612ddc565b90803b1561020e57611d816000939184926040519586809481937f173bf7da00000000000000000000000000000000000000000000000000000000835260048301612dcb565b03925af1918215610501576104ce92611d9b575b50611cd2565b806115db6000611daa93612462565b38611d95565b611d3b94955090611dca913d8091833e6116028183612462565b939238611d2e565b3461020e5760207ffffffffffffffffffffffffffffffffffffffffffffffffffffffffffffffffc36011261020e5760043577ffffffffffffffffffffffffffffffffffffffffffffffff811680910361020e57604051907f35567e1a000000000000000000000000000000000000000000000000000000008252306004830152602482015260208160448173ffffffffffffffffffffffffffffffffffffffff7f0000000000000000000000000000000000000000000000000000000000000000165afa8015610501576104ce91600091611eb957506040519081529081906020820190565b611edb915060203d602011611ee1575b611ed38183612462565b810190612745565b386105c0565b503d611ec9565b611ef136611b84565b9073ffffffffffffffffffffffffffffffffffffffff7f00000000000000000000000000000000000000000000000000000000000000001633148015612080575b611f3b90612538565b73ffffffffffffffffffffffffffffffffffffffff611f8e73ffffffffffffffffffffffffffffffffffffffff7f0bb70095b32b9671358306b0339b4c06e7cbd8cb82505941fba30d1eb5b82f03541690565b1680611f9e575061001c92613045565b9091604051927fd68f602500000000000000000000000000000000000000000000000000000000845260008480611fda36343360048501612d97565b038183875af19384156105015760009461205f575b50611ffb929394613045565b803b1561020e576120406000929183926040519485809481937f173bf7da00000000000000000000000000000000000000000000000000000000835260048301612dcb565b03925af180156105015761205057005b806115db600061001c93612462565b611ffb939450612079903d806000833e6116028183612462565b9392611fef565b50333014611f32565b3461020e5760407ffffffffffffffffffffffffffffffffffffffffffffffffffffffffffffffffc36011261020e576004356120c48161029a565b602435906000600173ffffffffffffffffffffffffffffffffffffffff83161415806121f2575b611016578215610fee5761214d610e95612106859495614ea8565b929473ffffffffffffffffffffffffffffffffffffffff166000527f0bb70095b32b9671358306b0339b4c06e7cbd8cb82505941fba30d1eb5b82f01602052604060002090565b73ffffffffffffffffffffffffffffffffffffffff811680151590816121e6575b50806121dd575b15610f6057610f54610e95826121926121d794610ef489886147f7565b73ffffffffffffffffffffffffffffffffffffffff166000527f0bb70095b32b9671358306b0339b4c06e7cbd8cb82505941fba30d1eb5b82f01602052604060002090565b9261214d565b50828410612175565b6001915014153861216e565b506121ff61106583614437565b6120eb565b3461020e5760607ffffffffffffffffffffffffffffffffffffffffffffffffffffffffffffffffc36011261020e5760043561223f8161029a565b6024359067ffffffffffffffff821161020e573660238301121561020e57816004013567ffffffffffffffff811161020e573660248260051b8501011161020e576044359160ff8316830361020e57602461001c940190613241565b3461020e5760207ffffffffffffffffffffffffffffffffffffffffffffffffffffffffffffffffc36011261020e57602061036d600435613362565b909291928360141161020e57831161020e57601401917fffffffffffffffffffffffffffffffffffffffffffffffffffffffffffffffec0190565b9060041161020e5790600490565b9060141161020e5790601490565b909291928360051161020e57831161020e57600501917ffffffffffffffffffffffffffffffffffffffffffffffffffffffffffffffffb0190565b9093929384831161020e57841161020e578101920390565b919091357fffffffffffffffffffffffffffffffffffffffff000000000000000000000000811692601481106123b5575050565b7fffffffffffffffffffffffffffffffffffffffff000000000000000000000000929350829060140360031b1b161690565b156123ef5750565b73ffffffffffffffffffffffffffffffffffffffff907fb927fe5e000000000000000000000000000000000000000000000000000000006000521660045260246000fd5b7f4e487b7100000000000000000000000000000000000000000000000000000000600052604160045260246000fd5b90601f7fffffffffffffffffffffffffffffffffffffffffffffffffffffffffffffffe0910116810190811067ffffffffffffffff82111761084a57604052565b9081602091031261020e57516124b88161071b565b90565b601f82602094937fffffffffffffffffffffffffffffffffffffffffffffffffffffffffffffffe0938186528686013760008582860101520116010190565b6124b8949273ffffffffffffffffffffffffffffffffffffffff606093168252602082015281604082015201916124bb565b6040513d6000823e3d90fd5b1561253f57565b7fac52ccbe0000000000000000000000000000000000000000000000000000000060005260046000fd5b604051906102c361012083612462565b604051906102c3604083612462565b67ffffffffffffffff811161084a57601f017fffffffffffffffffffffffffffffffffffffffffffffffffffffffffffffffe01660200190565b9291926125ce82612588565b916125dc6040519384612462565b82948184528183011161020e578281602093846000960137010152565b9080601f8301121561020e578160206124b8933591016125c2565b9190916101208184031261020e5761262a612569565b92612634826102b8565b845260208201356020850152604082013567ffffffffffffffff811161020e57816126609184016125f9565b6040850152606082013567ffffffffffffffff811161020e57816126859184016125f9565b60608501526080820135608085015260a082013560a085015260c082013560c085015260e082013567ffffffffffffffff811161020e57816126c89184016125f9565b60e085015261010082013567ffffffffffffffff811161020e576126ec92016125f9565b610100830152565b9035907fffffffffffffffffffffffffffffffffffffffffffffffffffffffffffffffe18136030182121561020e570180359067ffffffffffffffff821161020e5760200191813603831361020e57565b9081602091031261020e575190565b92919061286a6020916040865261278460408701825173ffffffffffffffffffffffffffffffffffffffff169052565b8281015160608701526101006128376127e56127b1604085015161012060808c01526101608b0190611127565b60608501517fffffffffffffffffffffffffffffffffffffffffffffffffffffffffffffffc08b83030160a08c0152611127565b608084015160c08a015260a084015160e08a015260c0840151838a015260e08401517fffffffffffffffffffffffffffffffffffffffffffffffffffffffffffffffc08a8303016101208b0152611127565b9101517fffffffffffffffffffffffffffffffffffffffffffffffffffffffffffffffc087830301610140880152611127565b930152565b90357fffffffffffffffffffffffffffffffffffffffffffffffffffffffffffffffe18236030181121561020e57016020813591019167ffffffffffffffff821161020e57813603831361020e57565b6124b8916128ea816128d0846102b8565b73ffffffffffffffffffffffffffffffffffffffff169052565b6020820135602082015261298061297461293b61292061290d604087018761286f565b61012060408801526101208701916124bb565b61292d606087018761286f565b9086830360608801526124bb565b6080850135608085015260a085013560a085015260c085013560c085015261296660e086018661286f565b9085830360e08701526124bb565b9261010081019061286f565b916101008185039101526124bb565b92919061286a6020916040865260408601906128bf565b602081013591612a18611065604085901c73ffffffffffffffffffffffffffffffffffffffff169460181b7fff00000000000000000000000000000000000000000000000000000000000000167f01000000000000000000000000000000000000000000000000000000000000001490565b15612ab857612a29611065846143c8565b612ab057612a8092602092600073ffffffffffffffffffffffffffffffffffffffff6040518097819682957f970032030000000000000000000000000000000000000000000000000000000084526004840161298f565b0393165af190811561050157600091612a97575090565b6124b8915060203d602011611ee157611ed38183612462565b505050600190565b612a8092602092612aec612ae5612ade612ad23685612614565b936101008101906126f4565b9085613995565b36916125c2565b610100820152600073ffffffffffffffffffffffffffffffffffffffff6040518097819682957f9700320300000000000000000000000000000000000000000000000000000000845260048401612754565b91909160408184031261020e578035612b568161029a565b92602082013567ffffffffffffffff811161020e576124b892016125f9565b3d15612ba0573d90612b8682612588565b91612b946040519384612462565b82523d6000602084013e565b606090565b15612bac57565b7fc970156c0000000000000000000000000000000000000000000000000000000060005260046000fd5b7f0f00000000000000000000000000000000000000000000000000000000000000906040805190612c078183612462565b600582527f4e657875730000000000000000000000000000000000000000000000000000006020830152612c3d81519182612462565b600a81527f312e302e302d62657461000000000000000000000000000000000000000000006020820152909146903090600090606090565b9091612c8c6124b8936040845260408401906128bf565b916020818403910152611127565b9081602091031261020e5751801515810361020e5790565b15612cba5750565b7fd393448a0000000000000000000000000000000000000000000000000000000060005260045260246000fd5b15612cf0575050565b73ffffffffffffffffffffffffffffffffffffffff92507fbe601672000000000000000000000000000000000000000000000000000000006000526004521660245260446000fd5b60208183031261020e5780519067ffffffffffffffff821161020e570181601f8201121561020e578051612d6b81612588565b92612d796040519485612462565b8184526020828401011161020e576124b89160208085019101611104565b6124b8939273ffffffffffffffffffffffffffffffffffffffff6060931682526020820152816040820152019060006124bb565b9060206124b8928181520190611127565b9291612de7336144a6565b600884901b9160007fff000000000000000000000000000000000000000000000000000000000000008616612e2257506124b89394506148c3565b7fff0000000000000000000000000000000000000000000000000000000000000086167f010000000000000000000000000000000000000000000000000000000000000003612e7757506124b8939450614823565b939291907fff0000000000000000000000000000000000000000000000000000000000000080871603612ff757612eb19293949550615976565b91612eba6146f6565b937fff000000000000000000000000000000000000000000000000000000000000008116612f065750612eef939495506159d5565b612ef8826147e5565b52612f02816147e5565b5090565b7fff0000000000000000000000000000000000000000000000000000000000000081167f010000000000000000000000000000000000000000000000000000000000000003612faa5750612f5c939495506159ae565b612f65836147e5565b526124b8577f11578eed8e46b1423d3f7c61bdf7a0481d929e5f3c6e2e1e97d7f3ab138c6019612fa4612f97836147e5565b516040519182918261480b565b0390a190565b7f1187dc060000000000000000000000000000000000000000000000000000000087527fff0000000000000000000000000000000000000000000000000000000000000016600452602486fd5b6024857fff00000000000000000000000000000000000000000000000000000000000000887fb96fcfe400000000000000000000000000000000000000000000000000000000835216600452fd5b9291908360081b93613077817fff00000000000000000000000000000000000000000000000000000000000000161590565b156130895750906102c3929391614a7d565b7fff0000000000000000000000000000000000000000000000000000000000000081167f0100000000000000000000000000000000000000000000000000000000000000036130df5750906102c3929391614a0b565b7fff00000000000000000000000000000000000000000000000000000000000000808216036131f157509061311391615976565b917fff000000000000000000000000000000000000000000000000000000000000008516613149576131469394506159d5565b50565b7fff0000000000000000000000000000000000000000000000000000000000000085167f0100000000000000000000000000000000000000000000000000000000000000036131a15761319d9394506159ae565b5050565b7fff00000000000000000000000000000000000000000000000000000000000000857f1187dc06000000000000000000000000000000000000000000000000000000006000521660045260246000fd5b7fff00000000000000000000000000000000000000000000000000000000000000907fb96fcfe4000000000000000000000000000000000000000000000000000000006000521660045260246000fd5b73ffffffffffffffffffffffffffffffffffffffff90939193817f00000000000000000000000000000000000000000000000000000000000000001633148015613359575b61328f90612538565b1692837fffffffffffffffffffffffff00000000000000000000000000000000000000006000541617600055836132eb575b5050507ff98c8404c5b1bfef2e6ba9233c6e88845aedfd36eea8b192725d8c199571cf32600080a2565b833b1561020e5760009161332c60405194859384937ff05c04e100000000000000000000000000000000000000000000000000000000855260048501614b25565b038183865af1801561050157613344575b80806132c1565b806115db600061335393612462565b3861333d565b50333014613286565b600181036133705750600190565b6002810361337e5750600190565b6003810361338c5750600190565b6004810361339a5750600190565b6133a357600190565b600090565b6000358060e01c63bc197c81811463f23a6e6182141763150b7a0282141761354a57507fffffffff000000000000000000000000000000000000000000000000000000001660008181527f0bb70095b32b9671358306b0339b4c06e7cbd8cb82505941fba30d1eb5b82f0260205260409020549061348161346273ffffffffffffffffffffffffffffffffffffffff84169360581b7fff000000000000000000000000000000000000000000000000000000000000001690565b9173ffffffffffffffffffffffffffffffffffffffff84161515613553565b7fff0000000000000000000000000000000000000000000000000000000000000081167ffe0000000000000000000000000000000000000000000000000000000000000014613525577fff0000000000000000000000000000000000000000000000000000000000000016156134f45750565b60008091368280373360601b365281601436019134905af11561351b573d6000803e3d6000f35b3d6000803e3d6000fd5b60008083368280373360601b36528160143601915afa1561351b573d6000803e3d6000f35b6020526020603cf35b1561355b5750565b7fffffffff00000000000000000000000000000000000000000000000000000000907f08c63e27000000000000000000000000000000000000000000000000000000006000521660045260246000fd5b919091357fffffffff00000000000000000000000000000000000000000000000000000000811692600481106135df575050565b7fffffffff00000000000000000000000000000000000000000000000000000000929350829060040360031b1b161690565b929091600184036136285750506124b891506143c8565b6002840361363c5750506124b89150614437565b60038403613672576124b8935060048210613669576136649161365e91612312565b906135ab565b614b85565b50506000614b85565b5050906004146000146136bf577f0bb70095b32b9671358306b0339b4c06e7cbd8cb82505941fba30d1eb5b82f035473ffffffffffffffffffffffffffffffffffffffff91821691161490565b50600090565b919261ffff6060511904616492027fffffffffffffffffffffffffffffffffffffffffffffffffffffffffffffffe0858401013514613980575b60009161370a614bf8565b91604051907fffffffffffffffffffffffffffffffffffffffffffffffffffffffffffffffe0878401013561ffff16958660420194871597600e850199600e8287010198828203948589019b7fffffffffffffffffffffffffffffffffffffffffffffffffffffffffffffffbe8d019a60408c602037611901600052841017816042601e2018176139415750505097967f5479706564446174615369676e28000000000000000000000000000000000000855260287ffffffffffffffffffffffffffffffffffffffffffffffffffffffffffffffffe8b99019a8a8c82375160001a7fffffffffffffffffffffffffffffffffffffffffffffffffffffffffffffff9f8183149101601a111791525b875160001a8060281461383b5790651201000000016001921c17970196613819565b509498978498976040607f9498836101209895979b7f20636f6e74656e74732c627974657331206669656c64732c737472696e67206e85527f616d652c737472696e672076657273696f6e2c75696e7432353620636861696e60208601527f49642c6164647265737320766572696679696e67436f6e74726163742c627974848601527f657333322073616c742c75696e743235365b5d20657874656e73696f6e73290060608601528785013786370103018620815220604052600116604201601e20907fffffffffffffffffffffffffffffffffffffffffffffffffffffffffffffffbe60019101935b6040521561393357929190565b61393c90613a5c565b929190565b969850969a50985050505093507f983e65e5148e570cd828ead231ee759a8d7958721a768f93bc4483ba005c32de600052602052604060002091613926565b925060408101350191602083359301906136ff565b6102c39093919293602084013560e01c90602485019082860195613a566139d0602489013560e01c9960046024858d8d010301018185612369565b99909998613a516139e23689896125c2565b6020815191012060286040519360208501927f9f34cc46003dee27a148c367555bac140aa3fbfc713cf44b3842f343fc2a4e7b845273ffffffffffffffffffffffffffffffffffffffff8a166040870152606086015260608552613a47608086612462565b0192519020613a5c565b614c6f565b35613b76565b7f0000000000000000000000000000000000000000000000000000000000000000467f000000000000000000000000000000000000000000000000000000000000000014307f0000000000000000000000000000000000000000000000000000000000000000141615613ae9575b671901000000000000600052601a52603a526042601820906000603a52565b50613b7160a06040517f8b73c3c69bb8fe3d512ecc4cf759cc79239f7b179b0ffacaa9a75d522b39400f81527f000000000000000000000000000000000000000000000000000000000000000060208201527f000000000000000000000000000000000000000000000000000000000000000060408201524660608201523060808201522090565b613aca565b92919073ffffffffffffffffffffffffffffffffffffffff613bcc73ffffffffffffffffffffffffffffffffffffffff7f0bb70095b32b9671358306b0339b4c06e7cbd8cb82505941fba30d1eb5b82f03541690565b1680613bdc57506102c393613cc1565b91604093919351937fd68f602500000000000000000000000000000000000000000000000000000000855260008580613c1a36343360048501612d97565b038183885af194851561050157600095613ca0575b50613c3b939495613cc1565b803b1561020e57613c806000929183926040519485809481937f173bf7da00000000000000000000000000000000000000000000000000000000835260048301612dcb565b03925af1801561050157613c915750565b806115db60006102c393612462565b613c3b949550613cba903d806000833e6116028183612462565b9493613c2f565b9392919073ffffffffffffffffffffffffffffffffffffffff811615613d6c5760018503613cf4576102c393945061561b565b60028503613d07576102c3939450615556565b60038503613d1a576102c3939450615254565b60048503613d2d576102c39394506150a3565b84613d3d576102c3939450614fac565b7f098312d200000000000000000000000000000000000000000000000000000000600052600485905260246000fd5b7f5316c18d0000000000000000000000000000000000000000000000000000000060005260046000fd5b9160206124b89381815201916124bb565b7f0bb70095b32b9671358306b0339b4c06e7cbd8cb82505941fba30d1eb5b82f0380547fffffffffffffffffffffffff000000000000000000000000000000000000000016905560009273ffffffffffffffffffffffffffffffffffffffff90911690813b15613e7157918391613e5593836040518096819582947f8a91b0e300000000000000000000000000000000000000000000000000000000845260206004850181815201916124bb565b03925af1801561050157613e67575050565b8161314691612462565b8380fd5b73ffffffffffffffffffffffffffffffffffffffff90929192613f26604051613e9f604082612462565b6000815260006020820152613eba61078361365e8789612312565b8151815460209093015174ff000000000000000000000000000000000000000060589190911c167fffffffffffffffffffffff00000000000000000000000000000000000000000090931673ffffffffffffffffffffffffffffffffffffffff90911617919091179055565b1691600082600411613f9d5750600401907ffffffffffffffffffffffffffffffffffffffffffffffffffffffffffffffffc01823b1561020e57613c8092600092836040518096819582947f8a91b0e300000000000000000000000000000000000000000000000000000000845260048401613d96565b80fd5b9173ffffffffffffffffffffffffffffffffffffffff91613fc391810190612b3e565b91169060009273ffffffffffffffffffffffffffffffffffffffff81169283158015614259575b61422e578373ffffffffffffffffffffffffffffffffffffffff61404e837f0bb70095b32b9671358306b0339b4c06e7cbd8cb82505941fba30d1eb5b82f019073ffffffffffffffffffffffffffffffffffffffff16600052602052604060002090565b5416036141ec578161413761417d926140f76140b0610e956141a5977f0bb70095b32b9671358306b0339b4c06e7cbd8cb82505941fba30d1eb5b82f019073ffffffffffffffffffffffffffffffffffffffff16600052602052604060002090565b917f0bb70095b32b9671358306b0339b4c06e7cbd8cb82505941fba30d1eb5b82f019073ffffffffffffffffffffffffffffffffffffffff16600052602052604060002090565b9073ffffffffffffffffffffffffffffffffffffffff167fffffffffffffffffffffffff0000000000000000000000000000000000000000825416179055565b7f0bb70095b32b9671358306b0339b4c06e7cbd8cb82505941fba30d1eb5b82f019073ffffffffffffffffffffffffffffffffffffffff16600052602052604060002090565b7fffffffffffffffffffffffff00000000000000000000000000000000000000008154169055565b813b156141e857613e55839283926040519485809481937f8a91b0e300000000000000000000000000000000000000000000000000000000835260048301612dcb565b8280fd5b7f7c84ecfb00000000000000000000000000000000000000000000000000000000855273ffffffffffffffffffffffffffffffffffffffff8216600452602485fd5b7f7c84ecfb000000000000000000000000000000000000000000000000000000008552600452602484fd5b5060018414613fea565b1561426a57565b7fb118263c0000000000000000000000000000000000000000000000000000000060005260046000fd5b906142b79073ffffffffffffffffffffffffffffffffffffffff93810190612b3e565b92166001811480614333575b8273ffffffffffffffffffffffffffffffffffffffff93926142e86142ed9315614263565b615779565b16803b1561020e57613c806000929183926040519485809481937f8a91b0e300000000000000000000000000000000000000000000000000000000835260048301612dcb565b50600073ffffffffffffffffffffffffffffffffffffffff8316801561439c5781527f0bb70095b32b9671358306b0339b4c06e7cbd8cb82505941fba30d1eb5b82f00602052604090205473ffffffffffffffffffffffffffffffffffffffff166001146142c3565b602492507f7c84ecfb000000000000000000000000000000000000000000000000000000008252600452fd5b73ffffffffffffffffffffffffffffffffffffffff16806001141590816143ed575090565b90506000527f0bb70095b32b9671358306b0339b4c06e7cbd8cb82505941fba30d1eb5b82f0060205273ffffffffffffffffffffffffffffffffffffffff60406000205416151590565b73ffffffffffffffffffffffffffffffffffffffff168060011415908161445c575090565b90506000527f0bb70095b32b9671358306b0339b4c06e7cbd8cb82505941fba30d1eb5b82f0160205273ffffffffffffffffffffffffffffffffffffffff60406000205416151590565b60009073ffffffffffffffffffffffffffffffffffffffff82541690816144cc57505050565b813b156141e85773ffffffffffffffffffffffffffffffffffffffff6044849260405194859384927f96fb7217000000000000000000000000000000000000000000000000000000008452166004830152600260248301525afa801561050157613e67575050565b60009073ffffffffffffffffffffffffffffffffffffffff825416908161455a57505050565b813b156141e85773ffffffffffffffffffffffffffffffffffffffff6044849260405194859384927f96fb7217000000000000000000000000000000000000000000000000000000008452166004830152600460248301525afa801561050157613e67575050565b60009073ffffffffffffffffffffffffffffffffffffffff82541690816145e857505050565b813b156141e85773ffffffffffffffffffffffffffffffffffffffff6044849260405194859384927f96fb7217000000000000000000000000000000000000000000000000000000008452166004830152600360248301525afa801561050157613e67575050565b60009073ffffffffffffffffffffffffffffffffffffffff825416908161467657505050565b813b156141e85773ffffffffffffffffffffffffffffffffffffffff6044849260405194859384927f96fb7217000000000000000000000000000000000000000000000000000000008452166004830152600160248301525afa801561050157613e67575050565b67ffffffffffffffff811161084a5760051b60200190565b604080519091906147078382612462565b60018152917fffffffffffffffffffffffffffffffffffffffffffffffffffffffffffffffe0018260005b82811061473e57505050565b806060602080938501015201614732565b90614759826146de565b6147666040519182612462565b8281527fffffffffffffffffffffffffffffffffffffffffffffffffffffffffffffffe061479482946146de565b019060005b8281106147a557505050565b806060602080938501015201614799565b7f4e487b7100000000000000000000000000000000000000000000000000000000600052603260045260246000fd5b8051156147f25760200190565b6147b6565b80518210156147f25760209160051b010190565b9060406124b892600081528160208201520190611127565b7fff0000000000000000000000000000000000000000000000000000000000000090921692918035018035915060200183614863576124b8929350615b06565b7f01000000000000000000000000000000000000000000000000000000000000008403614895576124b8929350615a4b565b837f1187dc060000000000000000000000000000000000000000000000000000000060005260045260246000fd5b906148d091939293615b75565b916148dc9493946146f6565b947fff0000000000000000000000000000000000000000000000000000000000000087166149235761491094959650615be4565b614919836147e5565b52613146826147e5565b7fff0000000000000000000000000000000000000000000000000000000000000087167f0100000000000000000000000000000000000000000000000000000000000000036149bb5761497894959650615bbb565b614981846147e5565b521561498957565b7fe723f28f104e46b47fd3531f3608374ac226bcf3ddda334a23a266453e0efdb76149b6612f97846147e5565b0390a1565b7fff00000000000000000000000000000000000000000000000000000000000000877f1187dc06000000000000000000000000000000000000000000000000000000006000521660045260246000fd5b7fff0000000000000000000000000000000000000000000000000000000000000090921692918035018035915060200183614a4b57613146929350615b06565b7f0100000000000000000000000000000000000000000000000000000000000000840361489557613146929350615a4b565b7fff0000000000000000000000000000000000000000000000000000000000000091614aab91949394615b75565b9390929516948515600014614ac557613146949550615be4565b7f01000000000000000000000000000000000000000000000000000000000000008603614af75761319d949550615bbb565b857f1187dc060000000000000000000000000000000000000000000000000000000060005260045260246000fd5b60ff909116815260406020820181905281018390526060019160005b818110614b4e5750505090565b90919260208060019273ffffffffffffffffffffffffffffffffffffffff8735614b778161029a565b168152019401929101614b41565b73ffffffffffffffffffffffffffffffffffffffff614bf081927fffffffff00000000000000000000000000000000000000000000000000000000166000527f0bb70095b32b9671358306b0339b4c06e7cbd8cb82505941fba30d1eb5b82f02602052604060002090565b541691161490565b73ffffffffffffffffffffffffffffffffffffffff90614c16612bd6565b9597939094604093929351986101208a0160405260001a60f81b60408a015260208151910120606089015260208151910120608088015260a08701521660c085015260e08401526020815160051b910120610100830152565b9091614c87610425614c818386612320565b90612381565b92614c94611065856143c8565b614da35792602092614cbf8373ffffffffffffffffffffffffffffffffffffffff94614cf9976122d7565b939091604051968795869485937ff551e2ee00000000000000000000000000000000000000000000000000000000855230600486016124fa565b0392165afa908115610501577f1626ba7e00000000000000000000000000000000000000000000000000000000917fffffffff0000000000000000000000000000000000000000000000000000000091600091614d84575b501603614d5a57565b7f46fdc3330000000000000000000000000000000000000000000000000000000060005260046000fd5b614d9d915060203d6020116104fa576104ec8183612462565b38614d51565b7fb927fe5e0000000000000000000000000000000000000000000000000000000060005273ffffffffffffffffffffffffffffffffffffffff841660045260246000fd5b60016000527f0bb70095b32b9671358306b0339b4c06e7cbd8cb82505941fba30d1eb5b82f006020527ffe44ceacbf4f03c6ac19f86826dd265fa9ec25125e8b1766c207f24cd3bc73c75473ffffffffffffffffffffffffffffffffffffffff16610a095760016000527f0bb70095b32b9671358306b0339b4c06e7cbd8cb82505941fba30d1eb5b82f006020526102c3604060002060017fffffffffffffffffffffffff0000000000000000000000000000000000000000825416179055565b90614eb2826146de565b614ebf6040519182612462565b8281527fffffffffffffffffffffffffffffffffffffffffffffffffffffffffffffffe0614eed82946146de565b0190602036910137565b7f4e487b7100000000000000000000000000000000000000000000000000000000600052601160045260246000fd5b7fffffffffffffffffffffffffffffffffffffffffffffffffffffffffffffffff8114614f535760010190565b614ef7565b907fffffffffffffffffffffffffffffffffffffffffffffffffffffffffffffffff8201918211614f5357565b91908110156147f25760051b0190565b908210156147f25761034d9160051b8101906126f4565b9150614fce908035810191602083019235916020810135019060208201913590565b9293918084036150795760005b818110614fea57505050505050565b80614ff86001928489614f85565b3582810361501c575061501661500f828887614f95565b908761561b565b01614fdb565b6002810361503f575061503a615033828887614f95565b9087615556565b615016565b6003810361505d575061503a615056828887614f95565b9087615254565b60040361503a5761503a615072828887614f95565b90876150a3565b7fb4fa3fb30000000000000000000000000000000000000000000000000000000060005260046000fd5b916150ad83614534565b6040517fecd0596100000000000000000000000000000000000000000000000000000000815260048082015273ffffffffffffffffffffffffffffffffffffffff84169390602081602481885afa908115610501576000916151e9575b50156151bb576151779061517261515573ffffffffffffffffffffffffffffffffffffffff7f0bb70095b32b9671358306b0339b4c06e7cbd8cb82505941fba30d1eb5b82f03541690565b73ffffffffffffffffffffffffffffffffffffffff811615615208565b6156e0565b823b1561020e57613c8092600092836040518096819582947f6d61fe7000000000000000000000000000000000000000000000000000000000845260048401613d96565b7fd393448a000000000000000000000000000000000000000000000000000000006000526004805260246000fd5b615202915060203d602011611820576118128183612462565b3861510a565b156152105750565b73ffffffffffffffffffffffffffffffffffffffff907f741cbe03000000000000000000000000000000000000000000000000000000006000521660045260246000fd5b909161525f826145c2565b6040517fecd059610000000000000000000000000000000000000000000000000000000081526003600482015273ffffffffffffffffffffffffffffffffffffffff83169290602081602481875afa9081156105015760009161549f575b501561547057613eba84610783615343612ae5868061533d6153186152f2836152ec61365e6154019e8c612312565b996154be565b357fff000000000000000000000000000000000000000000000000000000000000001690565b7fff000000000000000000000000000000000000000000000000000000000000001690565b9a61232e565b9661539c7fffffffff0000000000000000000000000000000000000000000000000000000084167f6d61fe70000000000000000000000000000000000000000000000000000000008114908115615446575b50156154cd565b6153b1836153ac61106582615c13565b6154fe565b6153d86153bc612579565b73ffffffffffffffffffffffffffffffffffffffff9096168652565b7fff00000000000000000000000000000000000000000000000000000000000000166020850152565b803b1561020e57613c806000929183926040519485809481937f6d61fe7000000000000000000000000000000000000000000000000000000000835260048301612dcb565b7f8a91b0e30000000000000000000000000000000000000000000000000000000091501438615395565b7fd393448a00000000000000000000000000000000000000000000000000000000600052600360045260246000fd5b6154b8915060203d602011611820576118128183612462565b386152bd565b90600410156147f25760040190565b156154d457565b7fc001660b0000000000000000000000000000000000000000000000000000000060005260046000fd5b156155065750565b7fffffffff00000000000000000000000000000000000000000000000000000000907fa56a04dd000000000000000000000000000000000000000000000000000000006000521660045260246000fd5b91615560836144a6565b6040517fecd059610000000000000000000000000000000000000000000000000000000081526002600482015273ffffffffffffffffffffffffffffffffffffffff84169390602081602481885afa908115610501576000916155fc575b50156155cd5761517790615c84565b7fd393448a00000000000000000000000000000000000000000000000000000000600052600260045260246000fd5b615615915060203d602011611820576118128183612462565b386155be565b9161562583614650565b6040517fecd059610000000000000000000000000000000000000000000000000000000081526001600482015273ffffffffffffffffffffffffffffffffffffffff84169390602081602481885afa908115610501576000916156c1575b50156156925761517790615e5c565b7fd393448a00000000000000000000000000000000000000000000000000000000600052600160045260246000fd5b6156da915060203d602011611820576118128183612462565b38615683565b73ffffffffffffffffffffffffffffffffffffffff6102c3911673ffffffffffffffffffffffffffffffffffffffff167fffffffffffffffffffffffff00000000000000000000000000000000000000007f0bb70095b32b9671358306b0339b4c06e7cbd8cb82505941fba30d1eb5b82f035416177f0bb70095b32b9671358306b0339b4c06e7cbd8cb82505941fba30d1eb5b82f0355565b73ffffffffffffffffffffffffffffffffffffffff82168015801561596c575b6159285773ffffffffffffffffffffffffffffffffffffffff82166000527f0bb70095b32b9671358306b0339b4c06e7cbd8cb82505941fba30d1eb5b82f0060205273ffffffffffffffffffffffffffffffffffffffff60406000205416036158e4578161589e61417d926140f7615857610e956102c3977f0bb70095b32b9671358306b0339b4c06e7cbd8cb82505941fba30d1eb5b82f009073ffffffffffffffffffffffffffffffffffffffff16600052602052604060002090565b917f0bb70095b32b9671358306b0339b4c06e7cbd8cb82505941fba30d1eb5b82f009073ffffffffffffffffffffffffffffffffffffffff16600052602052604060002090565b7f0bb70095b32b9671358306b0339b4c06e7cbd8cb82505941fba30d1eb5b82f009073ffffffffffffffffffffffffffffffffffffffff16600052602052604060002090565b7f7c84ecfb0000000000000000000000000000000000000000000000000000000060005273ffffffffffffffffffffffffffffffffffffffff821660045260246000fd5b73ffffffffffffffffffffffffffffffffffffffff827f7c84ecfb000000000000000000000000000000000000000000000000000000006000521660045260246000fd5b5060018114615799565b918160141161020e57823560601c92601401917fffffffffffffffffffffffffffffffffffffffffffffffffffffffffffffffec0190565b60009192806040519485378338925af4913d82523d6000602084013e60203d830101604052565b6000919392806040519586378438925af415615a01573d82523d6000602084013e60203d830101604052565b503d6000823e3d90fd5b91908110156147f25760051b810135907fffffffffffffffffffffffffffffffffffffffffffffffffffffffffffffffa18136030182121561020e570190565b919091615a578361474f565b9260005b818110615a6757505050565b80615a9e615a786001938587615a0b565b8035615a838161029a565b615a9660208301359260408101906126f4565b929091615bbb565b615aa883896147f7565b5215615ab5575b01615a5b565b7fe723f28f104e46b47fd3531f3608374ac226bcf3ddda334a23a266453e0efdb7615afe615ae383896147f7565b51604051918291858352604060208401526040830190611127565b0390a1615aaf565b919091615b128361474f565b9260005b818110615b2257505050565b80615b59615b336001938587615a0b565b8035615b3e8161029a565b615b5160208301359260408101906126f4565b929091615be4565b615b6382886147f7565b52615b6e81876147f7565b5001615b16565b908060141161020e57813560601c926034821061020e577fffffffffffffffffffffffffffffffffffffffffffffffffffffffffffffffcc603460148501359401920190565b906000928491604051958692833738935af1913d82523d6000602084013e60203d830101604052565b9092600092819594604051968792833738935af115615a01573d82523d6000602084013e60203d830101604052565b615c7d73ffffffffffffffffffffffffffffffffffffffff917fffffffff00000000000000000000000000000000000000000000000000000000166000527f0bb70095b32b9671358306b0339b4c06e7cbd8cb82505941fba30d1eb5b82f02602052604060002090565b5416151590565b73ffffffffffffffffffffffffffffffffffffffff811680158015615e52575b615e255760009081527f0bb70095b32b9671358306b0339b4c06e7cbd8cb82505941fba30d1eb5b82f01602052604090205473ffffffffffffffffffffffffffffffffffffffff16615de25760016000527f0bb70095b32b9671358306b0339b4c06e7cbd8cb82505941fba30d1eb5b82f016020526102c390615d93615d497fbdfeb076d903611fa58576955630d640569633049bcf40ad9c22db9251b54a13610e95565b6140f7837f0bb70095b32b9671358306b0339b4c06e7cbd8cb82505941fba30d1eb5b82f019073ffffffffffffffffffffffffffffffffffffffff16600052602052604060002090565b60016000527f0bb70095b32b9671358306b0339b4c06e7cbd8cb82505941fba30d1eb5b82f016020527fbdfeb076d903611fa58576955630d640569633049bcf40ad9c22db9251b54a136140f7565b7f40d3d1a40000000000000000000000000000000000000000000000000000000060005273ffffffffffffffffffffffffffffffffffffffff1660045260246000fd5b7f7c84ecfb0000000000000000000000000000000000000000000000000000000060005260045260246000fd5b5060018114615ca4565b73ffffffffffffffffffffffffffffffffffffffff811680158015615fba575b615e255760009081527f0bb70095b32b9671358306b0339b4c06e7cbd8cb82505941fba30d1eb5b82f00602052604090205473ffffffffffffffffffffffffffffffffffffffff16615de25760016000527f0bb70095b32b9671358306b0339b4c06e7cbd8cb82505941fba30d1eb5b82f006020526102c390615f6b615f217ffe44ceacbf4f03c6ac19f86826dd265fa9ec25125e8b1766c207f24cd3bc73c7610e95565b6140f7837f0bb70095b32b9671358306b0339b4c06e7cbd8cb82505941fba30d1eb5b82f009073ffffffffffffffffffffffffffffffffffffffff16600052602052604060002090565b60016000527f0bb70095b32b9671358306b0339b4c06e7cbd8cb82505941fba30d1eb5b82f006020527ffe44ceacbf4f03c6ac19f86826dd265fa9ec25125e8b1766c207f24cd3bc73c76140f7565b5060018114615e7c56fea164736f6c634300081a000afe44ceacbf4f03c6ac19f86826dd265fa9ec25125e8b1766c207f24cd3bc73c7bdfeb076d903611fa58576955630d640569633049bcf40ad9c22db9251b54a13",
    "linkReferences": {}
  },
  "methodIdentifiers": {
    "DOMAIN_SEPARATOR()": "3644e515",
    "accountId()": "9cfd7cff",
    "addDeposit()": "4a58db19",
    "eip712Domain()": "84b0196e",
    "entryPoint()": "b0d691fe",
    "execute(bytes32,bytes)": "e9ae5c53",
    "executeFromExecutor(bytes32,bytes)": "d691c964",
    "executeUserOp((address,uint256,bytes,bytes,bytes32,uint256,bytes32,bytes,bytes),bytes32)": "8dd7712f",
    "getActiveHook()": "0a664dba",
    "getDeposit()": "c399ec88",
    "getExecutorsPaginated(address,uint256)": "ea5f61d0",
    "getFallbackHandlerBySelector(bytes4)": "481ddd23",
    "getImplementation()": "aaf10f42",
    "getValidatorsPaginated(address,uint256)": "5faac46b",
    "hashTypedData(bytes32)": "6575f6aa",
    "initializeAccount(bytes)": "4b6a1419",
    "installModule(uint256,address,bytes)": "9517e29f",
    "isModuleInstalled(uint256,address,bytes)": "112d3a7d",
    "isValidSignature(bytes32,bytes)": "1626ba7e",
    "nonce(uint192)": "d86f2b3c",
    "proxiableUUID()": "52d1902d",
    "registry()": "7b103999",
    "setRegistry(address,address[],uint8)": "eab77e17",
    "supportsExecutionMode(bytes32)": "d03c7914",
    "supportsModule(uint256)": "f2dc691d",
    "supportsNestedTypedDataSign()": "d620c85a",
    "uninstallModule(uint256,address,bytes)": "a71763a8",
    "upgradeToAndCall(address,bytes)": "4f1ef286",
    "validateUserOp((address,uint256,bytes,bytes,bytes32,uint256,bytes32,bytes,bytes),bytes32,uint256)": "19822f7c",
    "withdrawDepositTo(address,uint256)": "4d44560d"
  },
  "id": 0
}