{
  "abi": [
    {
      "type": "receive",
      "stateMutability": "payable"
    },
    {
      "type": "function",
      "name": "calculateRepaymentAmount",
      "inputs": [
        {
          "name": "smartAccount",
          "type": "address",
          "internalType": "address"
        },
        {
          "name": "leaseId",
          "type": "uint256",
          "internalType": "uint256"
        }
      ],
      "outputs": [
        {
          "name": "",
          "type": "uint256",
          "internalType": "uint256"
        }
      ],
      "stateMutability": "view"
    },
    {
      "type": "function",
      "name": "checkLeaseExpiry",
      "inputs": [
        {
          "name": "account",
          "type": "address",
          "internalType": "address"
        },
        {
          "name": "leaseId",
          "type": "uint256",
          "internalType": "uint256"
        }
      ],
      "outputs": [
        {
          "name": "",
          "type": "bool",
          "internalType": "bool"
        }
      ],
      "stateMutability": "view"
    },
    {
      "type": "function",
      "name": "fulfillLease",
      "inputs": [
        {
          "name": "smartAccount",
          "type": "address",
          "internalType": "address"
        },
        {
          "name": "leaseId",
          "type": "uint256",
          "internalType": "uint256"
        }
      ],
      "outputs": [],
      "stateMutability": "payable"
    },
    {
      "type": "function",
      "name": "getActiveLeases",
      "inputs": [
        {
          "name": "sa",
          "type": "address",
          "internalType": "address"
        }
      ],
      "outputs": [
        {
          "name": "",
          "type": "uint256[]",
          "internalType": "uint256[]"
        }
      ],
      "stateMutability": "view"
    },
    {
      "type": "function",
      "name": "getLease",
      "inputs": [
        {
          "name": "sa",
          "type": "address",
          "internalType": "address"
        },
        {
          "name": "leaseId",
          "type": "uint256",
          "internalType": "uint256"
        }
      ],
      "outputs": [
        {
          "name": "",
          "type": "tuple",
          "internalType": "struct SolvNetModule.Lease",
          "components": [
            {
              "name": "id",
              "type": "uint256",
              "internalType": "uint256"
            },
            {
              "name": "token",
              "type": "address",
              "internalType": "address"
            },
            {
              "name": "amount",
              "type": "uint256",
              "internalType": "uint256"
            },
            {
              "name": "startTime",
              "type": "uint256",
              "internalType": "uint256"
            },
            {
              "name": "status",
              "type": "uint8",
              "internalType": "enum SolvNetModule.LeaseStatus"
            }
          ]
        }
      ],
      "stateMutability": "view"
    },
    {
      "type": "function",
      "name": "getLeaseConfig",
      "inputs": [
        {
          "name": "sa",
          "type": "address",
          "internalType": "address"
        },
        {
          "name": "token",
          "type": "address",
          "internalType": "address"
        }
      ],
      "outputs": [
        {
          "name": "",
          "type": "tuple",
          "internalType": "struct SolvNetModule.TokenWiseLeaseConfig",
          "components": [
            {
              "name": "token",
              "type": "address",
              "internalType": "address"
            },
            {
              "name": "max_amount",
              "type": "uint256",
              "internalType": "uint256"
            },
            {
              "name": "apr",
              "type": "uint256",
              "internalType": "uint256"
            },
            {
              "name": "max_duration",
              "type": "uint256",
              "internalType": "uint256"
            }
          ]
        }
      ],
      "stateMutability": "view"
    },
    {
      "type": "function",
      "name": "isInitialized",
      "inputs": [
        {
          "name": "smartAccount",
          "type": "address",
          "internalType": "address"
        }
      ],
      "outputs": [
        {
          "name": "",
          "type": "bool",
          "internalType": "bool"
        }
      ],
      "stateMutability": "view"
    },
    {
      "type": "function",
      "name": "isModuleType",
      "inputs": [
        {
          "name": "moduleTypeId",
          "type": "uint256",
          "internalType": "uint256"
        }
      ],
      "outputs": [
        {
          "name": "",
          "type": "bool",
          "internalType": "bool"
        }
      ],
      "stateMutability": "pure"
    },
    {
      "type": "function",
      "name": "name",
      "inputs": [],
      "outputs": [
        {
          "name": "",
          "type": "string",
          "internalType": "string"
        }
      ],
      "stateMutability": "pure"
    },
    {
      "type": "function",
      "name": "onInstall",
      "inputs": [
        {
          "name": "data",
          "type": "bytes",
          "internalType": "bytes"
        }
      ],
      "outputs": [],
      "stateMutability": "nonpayable"
    },
    {
      "type": "function",
      "name": "onUninstall",
      "inputs": [
        {
          "name": "",
          "type": "bytes",
          "internalType": "bytes"
        }
      ],
      "outputs": [],
      "stateMutability": "nonpayable"
    },
    {
      "type": "function",
      "name": "startLease",
      "inputs": [
        {
          "name": "smartAccount",
          "type": "address",
          "internalType": "address"
        },
        {
          "name": "token",
          "type": "address",
          "internalType": "address"
        },
        {
          "name": "amount",
          "type": "uint256",
          "internalType": "uint256"
        },
        {
          "name": "to",
          "type": "address",
          "internalType": "address"
        }
      ],
      "outputs": [
        {
          "name": "leaseId",
          "type": "uint256",
          "internalType": "uint256"
        }
      ],
      "stateMutability": "nonpayable"
    },
    {
      "type": "function",
      "name": "startLeases",
      "inputs": [
        {
          "name": "smartAccounts",
          "type": "address[]",
          "internalType": "address[]"
        },
        {
          "name": "tokens",
          "type": "address[]",
          "internalType": "address[]"
        },
        {
          "name": "amounts",
          "type": "uint256[]",
          "internalType": "uint256[]"
        },
        {
          "name": "tos",
          "type": "address[]",
          "internalType": "address[]"
        }
      ],
      "outputs": [],
      "stateMutability": "nonpayable"
    },
    {
      "type": "function",
      "name": "updateLeaseConfig",
      "inputs": [
        {
          "name": "token",
          "type": "address",
          "internalType": "address"
        },
        {
          "name": "config",
          "type": "tuple",
          "internalType": "struct SolvNetModule.TokenWiseLeaseConfig",
          "components": [
            {
              "name": "token",
              "type": "address",
              "internalType": "address"
            },
            {
              "name": "max_amount",
              "type": "uint256",
              "internalType": "uint256"
            },
            {
              "name": "apr",
              "type": "uint256",
              "internalType": "uint256"
            },
            {
              "name": "max_duration",
              "type": "uint256",
              "internalType": "uint256"
            }
          ]
        }
      ],
      "outputs": [],
      "stateMutability": "nonpayable"
    },
    {
      "type": "function",
      "name": "version",
      "inputs": [],
      "outputs": [
        {
          "name": "",
          "type": "string",
          "internalType": "string"
        }
      ],
      "stateMutability": "pure"
    },
    {
      "type": "event",
      "name": "LeaseConfigUpdated",
      "inputs": [
        {
          "name": "account",
          "type": "address",
          "indexed": true,
          "internalType": "address"
        },
        {
          "name": "config",
          "type": "tuple",
          "indexed": false,
          "internalType": "struct SolvNetModule.TokenWiseLeaseConfig",
          "components": [
            {
              "name": "token",
              "type": "address",
              "internalType": "address"
            },
            {
              "name": "max_amount",
              "type": "uint256",
              "internalType": "uint256"
            },
            {
              "name": "apr",
              "type": "uint256",
              "internalType": "uint256"
            },
            {
              "name": "max_duration",
              "type": "uint256",
              "internalType": "uint256"
            }
          ]
        }
      ],
      "anonymous": false
    },
    {
      "type": "event",
      "name": "LeaseExpired",
      "inputs": [
        {
          "name": "account",
          "type": "address",
          "indexed": true,
          "internalType": "address"
        },
        {
          "name": "leaseId",
          "type": "uint256",
          "indexed": false,
          "internalType": "uint256"
        }
      ],
      "anonymous": false
    },
    {
      "type": "event",
      "name": "LeaseFulfilled",
      "inputs": [
        {
          "name": "account",
          "type": "address",
          "indexed": true,
          "internalType": "address"
        },
        {
          "name": "leaseId",
          "type": "uint256",
          "indexed": false,
          "internalType": "uint256"
        }
      ],
      "anonymous": false
    },
    {
      "type": "event",
      "name": "LeaseStarted",
      "inputs": [
        {
          "name": "account",
          "type": "address",
          "indexed": true,
          "internalType": "address"
        },
        {
          "name": "leaseId",
          "type": "uint256",
          "indexed": false,
          "internalType": "uint256"
        },
        {
          "name": "lease",
          "type": "tuple",
          "indexed": false,
          "internalType": "struct SolvNetModule.Lease",
          "components": [
            {
              "name": "id",
              "type": "uint256",
              "internalType": "uint256"
            },
            {
              "name": "token",
              "type": "address",
              "internalType": "address"
            },
            {
              "name": "amount",
              "type": "uint256",
              "internalType": "uint256"
            },
            {
              "name": "startTime",
              "type": "uint256",
              "internalType": "uint256"
            },
            {
              "name": "status",
              "type": "uint8",
              "internalType": "enum SolvNetModule.LeaseStatus"
            }
          ]
        }
      ],
      "anonymous": false
    },
    {
      "type": "event",
      "name": "ModuleInitialized",
      "inputs": [
        {
          "name": "account",
          "type": "address",
          "indexed": true,
          "internalType": "address"
        },
        {
          "name": "config",
          "type": "tuple[]",
          "indexed": false,
          "internalType": "struct SolvNetModule.TokenWiseLeaseConfig[]",
          "components": [
            {
              "name": "token",
              "type": "address",
              "internalType": "address"
            },
            {
              "name": "max_amount",
              "type": "uint256",
              "internalType": "uint256"
            },
            {
              "name": "apr",
              "type": "uint256",
              "internalType": "uint256"
            },
            {
              "name": "max_duration",
              "type": "uint256",
              "internalType": "uint256"
            }
          ]
        }
      ],
      "anonymous": false
    },
    {
      "type": "event",
      "name": "ModuleUninitialized",
      "inputs": [
        {
          "name": "account",
          "type": "address",
          "indexed": true,
          "internalType": "address"
        }
      ],
      "anonymous": false
    },
    {
      "type": "error",
      "name": "ActiveLeasesExist",
      "inputs": [
        {
          "name": "smartAccount",
          "type": "address",
          "internalType": "address"
        },
        {
          "name": "leaseIds",
          "type": "uint256[]",
          "internalType": "uint256[]"
        }
      ]
    },
    {
      "type": "error",
      "name": "AlreadyInitialized",
      "inputs": [
        {
          "name": "smartAccount",
          "type": "address",
          "internalType": "address"
        }
      ]
    },
    {
      "type": "error",
      "name": "AmountExceedsMaximum",
      "inputs": [
        {
          "name": "requested",
          "type": "uint256",
          "internalType": "uint256"
        },
        {
          "name": "maximum",
          "type": "uint256",
          "internalType": "uint256"
        }
      ]
    },
    {
      "type": "error",
      "name": "AmountMustBeGreaterThanZero",
      "inputs": [
        {
          "name": "token",
          "type": "address",
          "internalType": "address"
        }
      ]
    },
    {
      "type": "error",
      "name": "IncorrectETHAmount",
      "inputs": [
        {
          "name": "amount",
          "type": "uint256",
          "internalType": "uint256"
        }
      ]
    },
    {
      "type": "error",
      "name": "IncorrectRepaymentAmount",
      "inputs": [
        {
          "name": "provided",
          "type": "uint256",
          "internalType": "uint256"
        },
        {
          "name": "expected",
          "type": "uint256",
          "internalType": "uint256"
        }
      ]
    },
    {
      "type": "error",
      "name": "InvalidRecipient",
      "inputs": [
        {
          "name": "recipient",
          "type": "address",
          "internalType": "address"
        }
      ]
    },
    {
      "type": "error",
      "name": "InvalidTokenAddress",
      "inputs": [
        {
          "name": "token",
          "type": "address",
          "internalType": "address"
        }
      ]
    },
    {
      "type": "error",
      "name": "LeaseNotActive",
      "inputs": [
        {
          "name": "smartAccount",
          "type": "address",
          "internalType": "address"
        },
        {
          "name": "leaseId",
          "type": "uint256",
          "internalType": "uint256"
        }
      ]
    },
    {
      "type": "error",
      "name": "NotInitialized",
      "inputs": [
        {
          "name": "smartAccount",
          "type": "address",
          "internalType": "address"
        }
      ]
    },
    {
      "type": "error",
      "name": "TokenMismatch",
      "inputs": [
        {
          "name": "expectedToken",
          "type": "address",
          "internalType": "address"
        },
        {
          "name": "providedToken",
          "type": "address",
          "internalType": "address"
        }
      ]
    },
    {
      "type": "error",
      "name": "TokenNotConfigured",
      "inputs": [
        {
          "name": "smartAccount",
          "type": "address",
          "internalType": "address"
        },
        {
          "name": "token",
          "type": "address",
          "internalType": "address"
        }
      ]
    },
    {
      "type": "error",
      "name": "TokenTransferFailed",
      "inputs": [
        {
          "name": "token",
          "type": "address",
          "internalType": "address"
        },
        {
          "name": "from",
          "type": "address",
          "internalType": "address"
        },
        {
          "name": "to",
          "type": "address",
          "internalType": "address"
        },
        {
          "name": "amount",
          "type": "uint256",
          "internalType": "uint256"
        }
      ]
    }
  ],
  "bytecode": {
    "object": "0x6080604052348015600e575f80fd5b50611bb48061001c5f395ff3fe6080604052600436106100e7575f3560e01c80637b0f6463116100875780638c386f09116100575780638c386f09146102b7578063b47dbb54146102ca578063d60b347f146102f6578063ecd059611461032d575f80fd5b80637b0f64631461021e5780637e227c9f1461023d5780637ef6f9bd1461026c5780638a91b0e314610298575f80fd5b80634f6df5ad116100c25780634f6df5ad1461017957806354fd4d50146101a65780636596aca1146101d35780636d61fe70146101ff575f80fd5b806306fdde03146100f25780630d0f387d146101395780632b9c1bd01461015a575f80fd5b366100ee57005b5f80fd5b3480156100fd575f80fd5b5060408051808201909152600d81526c536f6c764e65744d6f64756c6560981b60208201525b6040516101309190611252565b60405180910390f35b348015610144575f80fd5b506101586101533660046112b2565b61034d565b005b348015610165575f80fd5b50610158610174366004611393565b6103fc565b348015610184575f80fd5b506101986101933660046113d1565b6104fb565b604051908152602001610130565b3480156101b1575f80fd5b506040805180820190915260058152640312e302e360dc1b6020820152610123565b3480156101de575f80fd5b506101f26101ed366004611421565b610712565b604051610130919061147f565b34801561020a575f80fd5b506101586102193660046114c8565b6107a9565b348015610229575f80fd5b50610198610238366004611421565b610946565b348015610248575f80fd5b5061025c610257366004611421565b6109df565b6040519015158152602001610130565b348015610277575f80fd5b5061028b610286366004611534565b610a5e565b604051610130919061156b565b3480156102a3575f80fd5b506101586102b23660046114c8565b610ae7565b6101586102c5366004611421565b610b78565b3480156102d5575f80fd5b506102e96102e436600461159f565b610f7a565b60405161013091906115ba565b348015610301575f80fd5b5061025c61031036600461159f565b6001600160a01b03165f9081526003602052604090205460ff1690565b348015610338575f80fd5b5061025c6103473660046115fc565b60021490565b5f5b878110156103f1576103e889898381811061036c5761036c611613565b9050602002016020810190610381919061159f565b88888481811061039357610393611613565b90506020020160208101906103a8919061159f565b8787858181106103ba576103ba611613565b905060200201358686868181106103d3576103d3611613565b9050602002016020810190610193919061159f565b5060010161034f565b505050505050505050565b6001600160a01b038216610413602083018361159f565b6001600160a01b031614610460578161042f602083018361159f565b60405163f902523f60e01b81526001600160a01b039283166004820152911660248201526044015b60405180910390fd5b80602001355f0361048f57604051636b30633560e01b81526001600160a01b0383166004820152602401610457565b335f908152602081815260408083206001600160a01b0386168452909152902081906104bb8282611627565b505060405133907ffbeb225118dc29724abc4c1a3b0bcbacdca6ed4702c96fe6b20e20e3e0181025906104ef90849061166f565b60405180910390a25050565b5f6001600160a01b03821661052e57604051630bc2c5df60e11b81526001600160a01b0383166004820152602401610457565b6001600160a01b038086165f90815260208181526040808320888516808552925290912080549092161480159061058557506001600160a01b038516158015610583575080546001600160a01b038681169116145b155b156105b6576040516324bfdc0160e01b81526001600160a01b03808816600483015286166024820152604401610457565b80600101548411156105eb57600181015460405163c8f5f24b60e01b8152610457918691600401918252602082015260400190565b60048054905f6105fa836116c2565b909155506001600160a01b038781165f818152600160208181526040808420878552825280842087815580840180546001600160a01b031916978e169790971790965560028087018c905542600388015560048701805460ff19168517905594845293815292822080548083018255908352928220909201849055908401805493955091928792919061068e9084906116da565b909155506106a0905087858888610fe3565b6106c5578587858760405163abae3d6d60e01b815260040161045794939291906116ed565b866001600160a01b03167f6be6094a4cb16bd9143f6c1afb438ef1e8ce2351240eb9888040f6455d6c9ce08483604051610700929190611717565b60405180910390a25050949350505050565b61071a6111e1565b6001600160a01b038084165f908152600160208181526040808420878552825292839020835160a08101855281548152928101549094169082015260028084015492820192909252600383015460608201526004830154909291608084019160ff169081111561078c5761078c61144b565b600281111561079d5761079d61144b565b90525090505b92915050565b5f6107b6828401846117f8565b90505f5b81518110156108ef575f6001600160a01b03168282815181106107df576107df611613565b60200260200101515f01516001600160a01b03160361083b5781818151811061080a5761080a611613565b602090810291909101015151604051637330680360e01b81526001600160a01b039091166004820152602401610457565b81818151811061084d5761084d611613565b60200260200101515f80336001600160a01b03166001600160a01b031681526020019081526020015f205f84848151811061088a5761088a611613565b602090810291909101810151516001600160a01b0390811683528282019390935260409182015f20845181546001600160a01b0319169416939093178355830151600180840191909155908301516002830155606090920151600390910155016107ba565b50335f8181526003602052604090819020805460ff19166001179055517f2a7983e460a2b005de1d976fb072020389f4d08feb618cc91b7d4e38b5e0ed45906109399084906118cf565b60405180910390a2505050565b6001600160a01b038083165f8181526001602081815260408084208785528252808420948452838252808420928501549095168352529182206003820154839061099090426116da565b90505f64496cebb80082846002015486600201546109ae9190611938565b6109b89190611938565b6109c2919061194f565b90508084600201546109d4919061196e565b979650505050505050565b6001600160a01b038083165f81815260016020818152604080842087855282528084209484528382528084208584015490961684529490529281209092600483015460ff166002811115610a3557610a3561144b565b148015610a55575080600301548260030154610a51919061196e565b4210155b95945050505050565b610a8e60405180608001604052805f6001600160a01b031681526020015f81526020015f81526020015f81525090565b506001600160a01b039182165f9081526020818152604080832093851683529281529082902082516080810184528154909416845260018101549184019190915260028101549183019190915260030154606082015290565b335f8181526002602052604090205415610b2e576001600160a01b0381165f90815260026020526040908190209051632016bc0d60e21b8152610457918391600401611981565b6001600160a01b0381165f81815260036020526040808220805460ff19169055517f9d00629762554452d03c3b45626436df6ca1c3795d05d04df882f6db481b1be09190a2505050565b6001600160a01b0382165f90815260016020818152604080842085855290915290912090600482015460ff166002811115610bb557610bb561144b565b14610be55760405163528f2b1560e01b81526001600160a01b038416600482015260248101839052604401610457565b5f610bf08484610946565b60018301549091506001600160a01b0316610ca657803414610c285760405163bd3d1d3d60e01b815260048101829052602401610457565b5f846001600160a01b0316826040515f6040518083038185875af1925050503d805f8114610c71576040519150601f19603f3d011682016040523d82523d5f602084013e610c76565b606091505b5050905080610ca0575f30868460405163abae3d6d60e01b815260040161045794939291906116ed565b50610dfb565b6001820154604051636eb1769f60e11b81523360048201523060248201526001600160a01b03909116905f90829063dd62ed3e90604401602060405180830381865afa158015610cf8573d5f803e3d5ffd5b505050506040513d601f19601f82011682018060405250810190610d1c91906119d9565b905082811015610d495760405163d7a8fb0b60e01b81526004810182905260248101849052604401610457565b6040516323b872dd60e01b81523360048201526001600160a01b038781166024830152604482018590525f91908416906323b872dd906064016020604051808303815f875af1158015610d9e573d5f803e3d5ffd5b505050506040513d601f19601f82011682018060405250810190610dc291906119f0565b905080610df757600185015460405163abae3d6d60e01b8152610457916001600160a01b03169033908a9088906004016116ed565b5050505b60048201805460ff191660021790555f805b6001600160a01b0386165f90815260026020526040902054811015610e76576001600160a01b0386165f908152600260205260409020805486919083908110610e5857610e58611613565b905f5260205f20015403610e6e57809150610e76565b600101610e0d565b506001600160a01b0385165f9081526002602052604090208054610e9c906001906116da565b81548110610eac57610eac611613565b905f5260205f20015460025f876001600160a01b03166001600160a01b031681526020019081526020015f208281548110610ee957610ee9611613565b5f9182526020808320909101929092556001600160a01b0387168152600290915260409020805480610f1d57610f1d611a0f565b600190038181905f5260205f20015f90559055846001600160a01b03167f0d8b8a27208694081a68fc8feaae7cc6bff572d7482b935f0f5a1657ebbce28c85604051610f6b91815260200190565b60405180910390a25050505050565b6001600160a01b0381165f90815260026020908152604091829020805483518184028101840190945280845260609392830182828015610fd757602002820191905f5260205f20905b815481526020019060010190808311610fc3575b50505050509050919050565b5f6001600160a01b038316611018575f61100d86868560405180602001604052805f8152506110a2565b5115915061109a9050565b604080516001600160a01b038616602482015260448082018590528251808303909101815260649091019091526020810180516001600160e01b031663a9059cbb60e01b1790525f61106c878683856110a2565b805190915015611093578080602001905181019061108a91906119f0565b9250505061109a565b6001925050505b949350505050565b60605f6110b181808080611151565b9050856001600160a01b031663d691c964826110ce8888886111b2565b6040518363ffffffff1660e01b81526004016110eb929190611a23565b5f604051808303815f875af1158015611106573d5f803e3d5ffd5b505050506040513d5f823e601f3d908101601f1916820160405261112d9190810190611a3b565b5f8151811061113e5761113e611613565b6020026020010151915050949350505050565b604080516001600160f81b03198087166020830152851660218201525f602282018190526001600160e01b03198516602683015269ffffffffffffffffffff198416602a8301529101604051602081830303815290604052610a5590611b48565b60608383836040516020016111c993929190611b6e565b60405160208183030381529060405290509392505050565b6040518060a001604052805f81526020015f6001600160a01b031681526020015f81526020015f81526020015f600281111561121f5761121f61144b565b905290565b5f81518084528060208401602086015e5f602082860101526020601f19601f83011685010191505092915050565b602081525f6112646020830184611224565b9392505050565b5f8083601f84011261127b575f80fd5b5081356001600160401b03811115611291575f80fd5b6020830191508360208260051b85010111156112ab575f80fd5b9250929050565b5f805f805f805f806080898b0312156112c9575f80fd5b88356001600160401b038111156112de575f80fd5b6112ea8b828c0161126b565b90995097505060208901356001600160401b03811115611308575f80fd5b6113148b828c0161126b565b90975095505060408901356001600160401b03811115611332575f80fd5b61133e8b828c0161126b565b90955093505060608901356001600160401b0381111561135c575f80fd5b6113688b828c0161126b565b999c989b5096995094979396929594505050565b6001600160a01b0381168114611390575f80fd5b50565b5f8082840360a08112156113a5575f80fd5b83356113b08161137c565b92506080601f19820112156113c3575f80fd5b506020830190509250929050565b5f805f80608085870312156113e4575f80fd5b84356113ef8161137c565b935060208501356113ff8161137c565b92506040850135915060608501356114168161137c565b939692955090935050565b5f8060408385031215611432575f80fd5b823561143d8161137c565b946020939093013593505050565b634e487b7160e01b5f52602160045260245ffd5b6003811061147b57634e487b7160e01b5f52602160045260245ffd5b9052565b815181526020808301516001600160a01b031690820152604080830151908201526060808301519082015260808083015160a08301916114c19084018261145f565b5092915050565b5f80602083850312156114d9575f80fd5b82356001600160401b038111156114ee575f80fd5b8301601f810185136114fe575f80fd5b80356001600160401b03811115611513575f80fd5b856020828401011115611524575f80fd5b6020919091019590945092505050565b5f8060408385031215611545575f80fd5b82356115508161137c565b915060208301356115608161137c565b809150509250929050565b81516001600160a01b03168152602080830151908201526040808301519082015260608083015190820152608081016107a3565b5f602082840312156115af575f80fd5b81356112648161137c565b602080825282518282018190525f918401906040840190835b818110156115f15783518352602093840193909201916001016115d3565b509095945050505050565b5f6020828403121561160c575f80fd5b5035919050565b634e487b7160e01b5f52603260045260245ffd5b81356116328161137c565b81546001600160a01b0319166001600160a01b03919091161781556020820135600182015560408201356002820155606090910135600390910155565b60808101823561167e8161137c565b6001600160a01b031682526020838101359083015260408084013590830152606092830135929091019190915290565b634e487b7160e01b5f52601160045260245ffd5b5f600182016116d3576116d36116ae565b5060010190565b818103818111156107a3576107a36116ae565b6001600160a01b039485168152928416602084015292166040820152606081019190915260800190565b8281528154602082015260018201546001600160a01b031660408201526002820154606082015260038201546080820152600482015460c082019060ff1661176260a084018261145f565b509392505050565b634e487b7160e01b5f52604160045260245ffd5b604051608081016001600160401b03811182821017156117a0576117a061176a565b60405290565b604051601f8201601f191681016001600160401b03811182821017156117ce576117ce61176a565b604052919050565b5f6001600160401b038211156117ee576117ee61176a565b5060051b60200190565b5f60208284031215611808575f80fd5b81356001600160401b0381111561181d575f80fd5b8201601f8101841361182d575f80fd5b803561184061183b826117d6565b6117a6565b8082825260208201915060208360071b850101925086831115611861575f80fd5b6020840193505b828410156118c5576080848803121561187f575f80fd5b61188761177e565b84356118928161137c565b81526020858101358183015260408087013590830152606080870135908301529083526080909401939190910190611868565b9695505050505050565b602080825282518282018190525f918401906040840190835b818110156115f15761192283855180516001600160a01b031682526020808201519083015260408082015190830152606090810151910152565b60209390930192608092909201916001016118e8565b80820281158282048414176107a3576107a36116ae565b5f8261196957634e487b7160e01b5f52601260045260245ffd5b500490565b808201808211156107a3576107a36116ae565b6001600160a01b03831681526040602080830182905283549183018290525f84815290812090916060840190835b818110156119cd5783548352600193840193602090930192016119af565b50909695505050505050565b5f602082840312156119e9575f80fd5b5051919050565b5f60208284031215611a00575f80fd5b81518015158114611264575f80fd5b634e487b7160e01b5f52603160045260245ffd5b828152604060208201525f61109a6040830184611224565b5f60208284031215611a4b575f80fd5b81516001600160401b03811115611a60575f80fd5b8201601f81018413611a70575f80fd5b8051611a7e61183b826117d6565b8082825260208201915060208360051b850101925086831115611a9f575f80fd5b602084015b83811015611b3d5780516001600160401b03811115611ac1575f80fd5b8501603f81018913611ad1575f80fd5b60208101516001600160401b03811115611aed57611aed61176a565b611b00601f8201601f19166020016117a6565b8181526040838301018b1015611b14575f80fd5b8160408401602083015e5f60208383010152808652505050602083019250602081019050611aa4565b509695505050505050565b80516020808301519190811015611b68575f198160200360031b1b821691505b50919050565b6bffffffffffffffffffffffff198460601b1681528260148201525f82518060208501603485015e5f920160340191825250939250505056fea164736f6c634300081a000a",
    "linkReferences": {}
  },
  "methodIdentifiers": {
    "calculateRepaymentAmount(address,uint256)": "7b0f6463",
    "checkLeaseExpiry(address,uint256)": "7e227c9f",
    "fulfillLease(address,uint256)": "8c386f09",
    "getActiveLeases(address)": "b47dbb54",
    "getLease(address,uint256)": "6596aca1",
    "getLeaseConfig(address,address)": "7ef6f9bd",
    "isInitialized(address)": "d60b347f",
    "isModuleType(uint256)": "ecd05961",
    "name()": "06fdde03",
    "onInstall(bytes)": "6d61fe70",
    "onUninstall(bytes)": "8a91b0e3",
    "startLease(address,address,uint256,address)": "4f6df5ad",
    "startLeases(address[],address[],uint256[],address[])": "0d0f387d",
    "updateLeaseConfig(address,(address,uint256,uint256,uint256))": "2b9c1bd0",
    "version()": "54fd4d50"
  },
  "id": 272
}