{
    "_format": "hh-sol-artifact-1",
    "contractName": "Vault",
    "sourceName": "contracts/Vault.sol",
    "abi": [
        {
            "inputs": [],
            "name": "MAX_WITHDRAWABLE_LIQUIDITY",
            "outputs": [
                {
                    "internalType": "uint64",
                    "name": "",
                    "type": "uint64"
                }
            ],
            "stateMutability": "view",
            "type": "function"
        },
        {
            "inputs": [],
            "name": "TOTAL_LIQUIDITY",
            "outputs": [
                {
                    "internalType": "uint64",
                    "name": "",
                    "type": "uint64"
                }
            ],
            "stateMutability": "view",
            "type": "function"
        },
        {
            "inputs": [
                {
                    "internalType": "address",
                    "name": "_token",
                    "type": "address"
                },
                {
                    "internalType": "uint64",
                    "name": "_amount",
                    "type": "uint64"
                },
                {
                    "internalType": "address",
                    "name": "_from",
                    "type": "address"
                }
            ],
            "name": "deposit",
            "outputs": [],
            "stateMutability": "nonpayable",
            "type": "function"
        },
        {
            "inputs": [],
            "name": "getTotalNoOfLeases",
            "outputs": [
                {
                    "internalType": "uint256",
                    "name": "",
                    "type": "uint256"
                }
            ],
            "stateMutability": "view",
            "type": "function"
        },
        {
            "inputs": [
                {
                    "internalType": "uint256",
                    "name": "_duration",
                    "type": "uint256"
                },
                {
                    "internalType": "uint64",
                    "name": "_amount",
                    "type": "uint64"
                },
                {
                    "internalType": "address",
                    "name": "_tokenAddress",
                    "type": "address"
                }
            ],
            "name": "lease",
            "outputs": [],
            "stateMutability": "nonpayable",
            "type": "function"
        },
        {
            "inputs": [
                {
                    "internalType": "uint64",
                    "name": "",
                    "type": "uint64"
                }
            ],
            "name": "leases",
            "outputs": [
                {
                    "internalType": "uint256",
                    "name": "duration",
                    "type": "uint256"
                },
                {
                    "internalType": "uint64",
                    "name": "amount",
                    "type": "uint64"
                },
                {
                    "internalType": "address",
                    "name": "tokenAddress",
                    "type": "address"
                },
                {
                    "internalType": "bool",
                    "name": "status",
                    "type": "bool"
                }
            ],
            "stateMutability": "view",
            "type": "function"
        },
        {
            "inputs": [
                {
                    "internalType": "address",
                    "name": "",
                    "type": "address"
                }
            ],
            "name": "loaners",
            "outputs": [
                {
                    "internalType": "uint64",
                    "name": "",
                    "type": "uint64"
                }
            ],
            "stateMutability": "view",
            "type": "function"
        },
        {
            "inputs": [],
            "name": "noOfLeases",
            "outputs": [
                {
                    "internalType": "uint64",
                    "name": "",
                    "type": "uint64"
                }
            ],
            "stateMutability": "view",
            "type": "function"
        },
        {
            "inputs": [],
            "name": "payback",
            "outputs": [],
            "stateMutability": "nonpayable",
            "type": "function"
        }
    ],
    "bytecode": "0x6080604052620f4240600060086101000a81548167ffffffffffffffff021916908367ffffffffffffffff16021790555060008060106101000a81548167ffffffffffffffff021916908367ffffffffffffffff16021790555034801561006557600080fd5b50610d40806100756000396000f3fe608060405234801561001057600080fd5b50600436106100935760003560e01c8063854bec8711610066578063854bec8714610137578063c21b0ff014610141578063d07bb4f61461015f578063dabf32f91461017b578063f957dc031461019757610093565b80631d7bc9d2146100985780634c7f3c79146100b6578063529f91a2146100e95780635a9e80cd14610107575b600080fd5b6100a06101b5565b6040516100ad91906107b7565b60405180910390f35b6100d060048036038101906100cb9190610803565b6101cf565b6040516100e094939291906108a5565b60405180910390f35b6100f1610240565b6040516100fe91906107b7565b60405180910390f35b610121600480360381019061011c9190610916565b61025a565b60405161012e91906107b7565b60405180910390f35b61013f610281565b005b610149610283565b60405161015691906107b7565b60405180910390f35b61017960048036038101906101749190610943565b61029b565b005b610195600480360381019061019091906109c2565b61036b565b005b61019f61076d565b6040516101ac9190610a15565b60405180910390f35b600060109054906101000a900467ffffffffffffffff1681565b60016020528060005260406000206000915090508060000154908060010160009054906101000a900467ffffffffffffffff16908060010160089054906101000a900473ffffffffffffffffffffffffffffffffffffffff169080600101601c9054906101000a900460ff16905084565b600060089054906101000a900467ffffffffffffffff1681565b60026020528060005260406000206000915054906101000a900467ffffffffffffffff1681565b565b60008054906101000a900467ffffffffffffffff1681565b8273ffffffffffffffffffffffffffffffffffffffff166323b872dd3330856040518463ffffffff1660e01b81526004016102d893929190610a6b565b6020604051808303816000875af11580156102f7573d6000803e3d6000fd5b505050506040513d601f19601f8201168201806040525081019061031b9190610ace565b50816000808282829054906101000a900467ffffffffffffffff166103409190610b2a565b92506101000a81548167ffffffffffffffff021916908367ffffffffffffffff160217905550505050565b6000600260003373ffffffffffffffffffffffffffffffffffffffff1673ffffffffffffffffffffffffffffffffffffffff16815260200190815260200160002060009054906101000a900467ffffffffffffffff1690508267ffffffffffffffff1660008054906101000a900467ffffffffffffffff1667ffffffffffffffff16101561042e576040517f08c379a000000000000000000000000000000000000000000000000000000000815260040161042590610bc3565b60405180910390fd5b600060089054906101000a900467ffffffffffffffff1667ffffffffffffffff16838261045b9190610b2a565b67ffffffffffffffff1611156104a6576040517f08c379a000000000000000000000000000000000000000000000000000000000815260040161049d90610c55565b60405180910390fd5b826000808282829054906101000a900467ffffffffffffffff166104ca9190610c75565b92506101000a81548167ffffffffffffffff021916908367ffffffffffffffff1602179055508173ffffffffffffffffffffffffffffffffffffffff1663a9059cbb33856040518363ffffffff1660e01b815260040161052b929190610cb1565b6020604051808303816000875af115801561054a573d6000803e3d6000fd5b505050506040513d601f19601f8201168201806040525081019061056e9190610ace565b5082600260003373ffffffffffffffffffffffffffffffffffffffff1673ffffffffffffffffffffffffffffffffffffffff16815260200190815260200160002060008282829054906101000a900467ffffffffffffffff166105d19190610b2a565b92506101000a81548167ffffffffffffffff021916908367ffffffffffffffff16021790555060405180608001604052808581526020018467ffffffffffffffff1681526020018373ffffffffffffffffffffffffffffffffffffffff16815260200160011515815250600160008060109054906101000a900467ffffffffffffffff1667ffffffffffffffff1667ffffffffffffffff1681526020019081526020016000206000820151816000015560208201518160010160006101000a81548167ffffffffffffffff021916908367ffffffffffffffff16021790555060408201518160010160086101000a81548173ffffffffffffffffffffffffffffffffffffffff021916908373ffffffffffffffffffffffffffffffffffffffff160217905550606082015181600101601c6101000a81548160ff0219169083151502179055509050506000601081819054906101000a900467ffffffffffffffff168092919061074090610cda565b91906101000a81548167ffffffffffffffff021916908367ffffffffffffffff1602179055505050505050565b60008060109054906101000a900467ffffffffffffffff1667ffffffffffffffff16905090565b600067ffffffffffffffff82169050919050565b6107b181610794565b82525050565b60006020820190506107cc60008301846107a8565b92915050565b600080fd5b6107e081610794565b81146107eb57600080fd5b50565b6000813590506107fd816107d7565b92915050565b600060208284031215610819576108186107d2565b5b6000610827848285016107ee565b91505092915050565b6000819050919050565b61084381610830565b82525050565b600073ffffffffffffffffffffffffffffffffffffffff82169050919050565b600061087482610849565b9050919050565b61088481610869565b82525050565b60008115159050919050565b61089f8161088a565b82525050565b60006080820190506108ba600083018761083a565b6108c760208301866107a8565b6108d4604083018561087b565b6108e16060830184610896565b95945050505050565b6108f381610869565b81146108fe57600080fd5b50565b600081359050610910816108ea565b92915050565b60006020828403121561092c5761092b6107d2565b5b600061093a84828501610901565b91505092915050565b60008060006060848603121561095c5761095b6107d2565b5b600061096a86828701610901565b935050602061097b868287016107ee565b925050604061098c86828701610901565b9150509250925092565b61099f81610830565b81146109aa57600080fd5b50565b6000813590506109bc81610996565b92915050565b6000806000606084860312156109db576109da6107d2565b5b60006109e9868287016109ad565b93505060206109fa868287016107ee565b9250506040610a0b86828701610901565b9150509250925092565b6000602082019050610a2a600083018461083a565b92915050565b6000819050919050565b6000610a55610a50610a4b84610794565b610a30565b610830565b9050919050565b610a6581610a3a565b82525050565b6000606082019050610a80600083018661087b565b610a8d602083018561087b565b610a9a6040830184610a5c565b949350505050565b610aab8161088a565b8114610ab657600080fd5b50565b600081519050610ac881610aa2565b92915050565b600060208284031215610ae457610ae36107d2565b5b6000610af284828501610ab9565b91505092915050565b7f4e487b7100000000000000000000000000000000000000000000000000000000600052601160045260246000fd5b6000610b3582610794565b9150610b4083610794565b9250828201905067ffffffffffffffff811115610b6057610b5f610afb565b5b92915050565b600082825260208201905092915050565b7f4e6f7420656e6f756768206c6971756964697479000000000000000000000000600082015250565b6000610bad601483610b66565b9150610bb882610b77565b602082019050919050565b60006020820190508181036000830152610bdc81610ba0565b9050919050565b7f416d6f756e742065786365656473206d617820776974686472617761626c652060008201527f6c69717569646974790000000000000000000000000000000000000000000000602082015250565b6000610c3f602983610b66565b9150610c4a82610be3565b604082019050919050565b60006020820190508181036000830152610c6e81610c32565b9050919050565b6000610c8082610794565b9150610c8b83610794565b9250828203905067ffffffffffffffff811115610cab57610caa610afb565b5b92915050565b6000604082019050610cc6600083018561087b565b610cd36020830184610a5c565b9392505050565b6000610ce582610794565b915067ffffffffffffffff8203610cff57610cfe610afb565b5b60018201905091905056fea26469706673582212206800479c8da7d855650a94ac67200a769394c3e8f4d178d20323dab5340a817864736f6c63430008180033",
    "linkReferences": {},
    "deployedLinkReferences": {}
}