{
    "_format": "hh-sol-artifact-1",
    "contractName": "USDCUSDTUniswapSwap",
    "sourceName": "contracts/UniswapSolver.sol",
    "abi": [
        {
            "inputs": [
                {
                    "internalType": "address",
                    "name": "_router",
                    "type": "address"
                },
                {
                    "internalType": "address",
                    "name": "_usdc",
                    "type": "address"
                },
                {
                    "internalType": "address",
                    "name": "_usdt",
                    "type": "address"
                }
            ],
            "stateMutability": "nonpayable",
            "type": "constructor"
        },
        {
            "inputs": [],
            "name": "router",
            "outputs": [
                {
                    "internalType": "address",
                    "name": "",
                    "type": "address"
                }
            ],
            "stateMutability": "view",
            "type": "function"
        },
        {
            "inputs": [
                {
                    "internalType": "uint256",
                    "name": "_amountIn",
                    "type": "uint256"
                },
                {
                    "internalType": "uint256",
                    "name": "_amountOutMin",
                    "type": "uint256"
                },
                {
                    "internalType": "uint256",
                    "name": "_deadline",
                    "type": "uint256"
                }
            ],
            "name": "swapUSDCtoUSDT",
            "outputs": [],
            "stateMutability": "nonpayable",
            "type": "function"
        },
        {
            "inputs": [],
            "name": "usdc",
            "outputs": [
                {
                    "internalType": "address",
                    "name": "",
                    "type": "address"
                }
            ],
            "stateMutability": "view",
            "type": "function"
        },
        {
            "inputs": [],
            "name": "usdt",
            "outputs": [
                {
                    "internalType": "address",
                    "name": "",
                    "type": "address"
                }
            ],
            "stateMutability": "view",
            "type": "function"
        }
    ],
    "bytecode": "0x608060405234801561001057600080fd5b50604051610b3d380380610b3d8339818101604052810190610032919061015f565b826000806101000a81548173ffffffffffffffffffffffffffffffffffffffff021916908373ffffffffffffffffffffffffffffffffffffffff16021790555081600160006101000a81548173ffffffffffffffffffffffffffffffffffffffff021916908373ffffffffffffffffffffffffffffffffffffffff16021790555080600260006101000a81548173ffffffffffffffffffffffffffffffffffffffff021916908373ffffffffffffffffffffffffffffffffffffffff1602179055505050506101b2565b600080fd5b600073ffffffffffffffffffffffffffffffffffffffff82169050919050565b600061012c82610101565b9050919050565b61013c81610121565b811461014757600080fd5b50565b60008151905061015981610133565b92915050565b600080600060608486031215610178576101776100fc565b5b60006101868682870161014a565b93505060206101978682870161014a565b92505060406101a88682870161014a565b9150509250925092565b61097c806101c16000396000f3fe608060405234801561001057600080fd5b506004361061004c5760003560e01c80632067df10146100515780632f48ab7d1461006d5780633e413bee1461008b578063f887ea40146100a9575b600080fd5b61006b600480360381019061006691906104c5565b6100c7565b005b61007561040b565b6040516100829190610559565b60405180910390f35b610093610431565b6040516100a09190610559565b60405180910390f35b6100b1610457565b6040516100be9190610559565b60405180910390f35b600160009054906101000a900473ffffffffffffffffffffffffffffffffffffffff1673ffffffffffffffffffffffffffffffffffffffff166323b872dd3330866040518463ffffffff1660e01b815260040161012693929190610583565b6020604051808303816000875af1158015610145573d6000803e3d6000fd5b505050506040513d601f19601f8201168201806040525081019061016991906105f2565b50600160009054906101000a900473ffffffffffffffffffffffffffffffffffffffff1673ffffffffffffffffffffffffffffffffffffffff1663095ea7b360008054906101000a900473ffffffffffffffffffffffffffffffffffffffff16856040518363ffffffff1660e01b81526004016101e792919061061f565b6020604051808303816000875af1158015610206573d6000803e3d6000fd5b505050506040513d601f19601f8201168201806040525081019061022a91906105f2565b506000600267ffffffffffffffff81111561024857610247610648565b5b6040519080825280602002602001820160405280156102765781602001602082028036833780820191505090505b509050600160009054906101000a900473ffffffffffffffffffffffffffffffffffffffff16816000815181106102b0576102af610677565b5b602002602001019073ffffffffffffffffffffffffffffffffffffffff16908173ffffffffffffffffffffffffffffffffffffffff1681525050600260009054906101000a900473ffffffffffffffffffffffffffffffffffffffff168160018151811061032157610320610677565b5b602002602001019073ffffffffffffffffffffffffffffffffffffffff16908173ffffffffffffffffffffffffffffffffffffffff168152505060008054906101000a900473ffffffffffffffffffffffffffffffffffffffff1673ffffffffffffffffffffffffffffffffffffffff166338ed173985858433876040518663ffffffff1660e01b81526004016103bc959493929190610764565b6000604051808303816000875af11580156103db573d6000803e3d6000fd5b505050506040513d6000823e3d601f19601f8201168201806040525081019061040491906108fd565b5050505050565b600260009054906101000a900473ffffffffffffffffffffffffffffffffffffffff1681565b600160009054906101000a900473ffffffffffffffffffffffffffffffffffffffff1681565b60008054906101000a900473ffffffffffffffffffffffffffffffffffffffff1681565b6000604051905090565b600080fd5b600080fd5b6000819050919050565b6104a28161048f565b81146104ad57600080fd5b50565b6000813590506104bf81610499565b92915050565b6000806000606084860312156104de576104dd610485565b5b60006104ec868287016104b0565b93505060206104fd868287016104b0565b925050604061050e868287016104b0565b9150509250925092565b600073ffffffffffffffffffffffffffffffffffffffff82169050919050565b600061054382610518565b9050919050565b61055381610538565b82525050565b600060208201905061056e600083018461054a565b92915050565b61057d8161048f565b82525050565b6000606082019050610598600083018661054a565b6105a5602083018561054a565b6105b26040830184610574565b949350505050565b60008115159050919050565b6105cf816105ba565b81146105da57600080fd5b50565b6000815190506105ec816105c6565b92915050565b60006020828403121561060857610607610485565b5b6000610616848285016105dd565b91505092915050565b6000604082019050610634600083018561054a565b6106416020830184610574565b9392505050565b7f4e487b7100000000000000000000000000000000000000000000000000000000600052604160045260246000fd5b7f4e487b7100000000000000000000000000000000000000000000000000000000600052603260045260246000fd5b600081519050919050565b600082825260208201905092915050565b6000819050602082019050919050565b6106db81610538565b82525050565b60006106ed83836106d2565b60208301905092915050565b6000602082019050919050565b6000610711826106a6565b61071b81856106b1565b9350610726836106c2565b8060005b8381101561075757815161073e88826106e1565b9750610749836106f9565b92505060018101905061072a565b5085935050505092915050565b600060a0820190506107796000830188610574565b6107866020830187610574565b81810360408301526107988186610706565b90506107a7606083018561054a565b6107b46080830184610574565b9695505050505050565b600080fd5b6000601f19601f8301169050919050565b6107dd826107c3565b810181811067ffffffffffffffff821117156107fc576107fb610648565b5b80604052505050565b600061080f61047b565b905061081b82826107d4565b919050565b600067ffffffffffffffff82111561083b5761083a610648565b5b602082029050602081019050919050565b600080fd5b60008151905061086081610499565b92915050565b600061087961087484610820565b610805565b9050808382526020820190506020840283018581111561089c5761089b61084c565b5b835b818110156108c557806108b18882610851565b84526020840193505060208101905061089e565b5050509392505050565b600082601f8301126108e4576108e36107be565b5b81516108f4848260208601610866565b91505092915050565b60006020828403121561091357610912610485565b5b600082015167ffffffffffffffff8111156109315761093061048a565b5b61093d848285016108cf565b9150509291505056fea2646970667358221220f3626d79a61c43d4bf528a1046e7be23b18b27fcab04150a87f5476651e63e1664736f6c63430008180033",
    "linkReferences": {},
    "deployedLinkReferences": {}
}