{
    "_format": "hh-sol-artifact-1",
    "contractName": "Vault",
    "sourceName": "contracts/Vault.sol",
    "abi": [
        {
            "inputs": [],
            "name": "MAX_WITHDRAWABLE_LIQUIDITY",
            "outputs": [
                {
                    "internalType": "uint64",
                    "name": "",
                    "type": "uint64"
                }
            ],
            "stateMutability": "view",
            "type": "function"
        },
        {
            "inputs": [],
            "name": "TOTAL_LIQUIDITY",
            "outputs": [
                {
                    "internalType": "uint64",
                    "name": "",
                    "type": "uint64"
                }
            ],
            "stateMutability": "view",
            "type": "function"
        },
        {
            "inputs": [
                {
                    "internalType": "address",
                    "name": "_token",
                    "type": "address"
                },
                {
                    "internalType": "uint64",
                    "name": "_amount",
                    "type": "uint64"
                },
                {
                    "internalType": "address",
                    "name": "_from",
                    "type": "address"
                }
            ],
            "name": "deposit",
            "outputs": [],
            "stateMutability": "nonpayable",
            "type": "function"
        },
        {
            "inputs": [
                {
                    "internalType": "uint256",
                    "name": "_duration",
                    "type": "uint256"
                },
                {
                    "internalType": "uint64",
                    "name": "_amount",
                    "type": "uint64"
                },
                {
                    "internalType": "address",
                    "name": "_tokenAddress",
                    "type": "address"
                }
            ],
            "name": "lease",
            "outputs": [],
            "stateMutability": "nonpayable",
            "type": "function"
        },
        {
            "inputs": [
                {
                    "internalType": "address",
                    "name": "",
                    "type": "address"
                }
            ],
            "name": "loaners",
            "outputs": [
                {
                    "internalType": "uint64",
                    "name": "",
                    "type": "uint64"
                }
            ],
            "stateMutability": "view",
            "type": "function"
        },
        {
            "inputs": [],
            "name": "payback",
            "outputs": [],
            "stateMutability": "nonpayable",
            "type": "function"
        }
    ],
    "bytecode": "0x6080604052620f4240600060086101000a81548167ffffffffffffffff021916908367ffffffffffffffff16021790555034801561003c57600080fd5b506109a38061004c6000396000f3fe608060405234801561001057600080fd5b50600436106100625760003560e01c8063529f91a2146100675780635a9e80cd14610085578063854bec87146100b5578063c21b0ff0146100bf578063d07bb4f6146100dd578063dabf32f9146100f9575b600080fd5b61006f610115565b60405161007c91906104f5565b60405180910390f35b61009f600480360381019061009a9190610573565b61012f565b6040516100ac91906104f5565b60405180910390f35b6100bd610156565b005b6100c7610158565b6040516100d491906104f5565b60405180910390f35b6100f760048036038101906100f291906105cc565b610170565b005b610113600480360381019061010e9190610655565b610240565b005b600060089054906101000a900467ffffffffffffffff1681565b60016020528060005260406000206000915054906101000a900467ffffffffffffffff1681565b565b60008054906101000a900467ffffffffffffffff1681565b8273ffffffffffffffffffffffffffffffffffffffff166323b872dd3330856040518463ffffffff1660e01b81526004016101ad939291906106f2565b6020604051808303816000875af11580156101cc573d6000803e3d6000fd5b505050506040513d601f19601f820116820180604052508101906101f09190610761565b50816000808282829054906101000a900467ffffffffffffffff1661021591906107bd565b92506101000a81548167ffffffffffffffff021916908367ffffffffffffffff160217905550505050565b6000600160003373ffffffffffffffffffffffffffffffffffffffff1673ffffffffffffffffffffffffffffffffffffffff16815260200190815260200160002060009054906101000a900467ffffffffffffffff1690508267ffffffffffffffff1660008054906101000a900467ffffffffffffffff1667ffffffffffffffff161015610303576040517f08c379a00000000000000000000000000000000000000000000000000000000081526004016102fa90610856565b60405180910390fd5b600060089054906101000a900467ffffffffffffffff1667ffffffffffffffff16838261033091906107bd565b67ffffffffffffffff16111561037b576040517f08c379a0000000000000000000000000000000000000000000000000000000008152600401610372906108e8565b60405180910390fd5b826000808282829054906101000a900467ffffffffffffffff1661039f9190610908565b92506101000a81548167ffffffffffffffff021916908367ffffffffffffffff1602179055508173ffffffffffffffffffffffffffffffffffffffff1663a9059cbb33856040518363ffffffff1660e01b8152600401610400929190610944565b6020604051808303816000875af115801561041f573d6000803e3d6000fd5b505050506040513d601f19601f820116820180604052508101906104439190610761565b5082600160003373ffffffffffffffffffffffffffffffffffffffff1673ffffffffffffffffffffffffffffffffffffffff16815260200190815260200160002060008282829054906101000a900467ffffffffffffffff166104a691906107bd565b92506101000a81548167ffffffffffffffff021916908367ffffffffffffffff16021790555050505050565b600067ffffffffffffffff82169050919050565b6104ef816104d2565b82525050565b600060208201905061050a60008301846104e6565b92915050565b600080fd5b600073ffffffffffffffffffffffffffffffffffffffff82169050919050565b600061054082610515565b9050919050565b61055081610535565b811461055b57600080fd5b50565b60008135905061056d81610547565b92915050565b60006020828403121561058957610588610510565b5b60006105978482850161055e565b91505092915050565b6105a9816104d2565b81146105b457600080fd5b50565b6000813590506105c6816105a0565b92915050565b6000806000606084860312156105e5576105e4610510565b5b60006105f38682870161055e565b9350506020610604868287016105b7565b92505060406106158682870161055e565b9150509250925092565b6000819050919050565b6106328161061f565b811461063d57600080fd5b50565b60008135905061064f81610629565b92915050565b60008060006060848603121561066e5761066d610510565b5b600061067c86828701610640565b935050602061068d868287016105b7565b925050604061069e8682870161055e565b9150509250925092565b6106b181610535565b82525050565b6000819050919050565b60006106dc6106d76106d2846104d2565b6106b7565b61061f565b9050919050565b6106ec816106c1565b82525050565b600060608201905061070760008301866106a8565b61071460208301856106a8565b61072160408301846106e3565b949350505050565b60008115159050919050565b61073e81610729565b811461074957600080fd5b50565b60008151905061075b81610735565b92915050565b60006020828403121561077757610776610510565b5b60006107858482850161074c565b91505092915050565b7f4e487b7100000000000000000000000000000000000000000000000000000000600052601160045260246000fd5b60006107c8826104d2565b91506107d3836104d2565b9250828201905067ffffffffffffffff8111156107f3576107f261078e565b5b92915050565b600082825260208201905092915050565b7f4e6f7420656e6f756768206c6971756964697479000000000000000000000000600082015250565b60006108406014836107f9565b915061084b8261080a565b602082019050919050565b6000602082019050818103600083015261086f81610833565b9050919050565b7f416d6f756e742065786365656473206d617820776974686472617761626c652060008201527f6c69717569646974790000000000000000000000000000000000000000000000602082015250565b60006108d26029836107f9565b91506108dd82610876565b604082019050919050565b60006020820190508181036000830152610901816108c5565b9050919050565b6000610913826104d2565b915061091e836104d2565b9250828203905067ffffffffffffffff81111561093e5761093d61078e565b5b92915050565b600060408201905061095960008301856106a8565b61096660208301846106e3565b939250505056fea264697066735822122071ea274eb7a6a9dc6d29b20742b7f944cf1ac1d490033339102a7ec2ecb1dac364736f6c63430008180033",
    "linkReferences": {},
    "deployedLinkReferences": {}
}